:100000000C9458000C9480000C9480000C94800098
:100010000C9480000C9480000C9480000C94800060
:100020000C9480000C9480000C9480000C94800050
:100030000C9480000C9480000C9480000C94800040
:100040000C949E100C9480000C940C0D0C94E60CF7
:100050000C9480000C9480000C9480000C94800020
:100060000C94E6090C948000000000002500280094
:100070002B00040404040404040402020202020229
:10008000030303030303010204081020408001025C
:1000900004081020010204081020000000080002DB
:1000A00001000003040700000000000000000C1322
:1000B00011241FBECFEFD8E0DEBFCDBF11E0A0E01E
:1000C000B1E0EEE1F8E202C005900D92A838B10768
:1000D000D9F727E0A8E8B1E001C01D92AF37B20719
:1000E000E1F710E0C8E5D0E004C02197FE010E94CE
:1000F000F313C735D107C9F70E94E8100C940D140B
:100100000C940000EF92FF920F931F93CF93DF9315
:10011000EC0190918A019F5F292F277020938A011B
:1001200090FF02C090E801C090E021FD906424702F
:1001300009F0906220E1290FFE013C967E018FE0DC
:10014000E80EF11C00E011E06191662331F070E0EF
:10015000C8010E947F136F5F01C060E0DF01149748
:100160006C93322F369F030E30E0311D1124CF01E6
:100170000797311103C0EC01188203C03150EC0124
:100180003883662311F061506C93EE15FF05E1F69C
:10019000DF91CF911F910F91FF90EF900895DC01B7
:1001A0008D919C91009739F0DC01ED91FC910280DA
:1001B000F381E02D0994089587FF02C05C9A01C085
:1001C0005C985D9A5D9886FF02C05C9A01C05C985D
:1001D0005D9A5D9885FF02C05C9A01C05C985D9A4B
:1001E0005D9884FF02C05C9A01C05C985D9A5D983E
:1001F00083FF02C05C9A01C05C985D9A5D9882FFA3
:1002000002C05C9A01C05C985D9A5D9881FF02C053
:100210005C9A01C05C985D9A5D9880FF02C05C9A10
:1002200001C05C985D9A5D980895DC018D919C9168
:10023000009739F0DC01ED91FC910280F381E02D13
:100240000994089587FF02C05A9A01C05A985B9A90
:100250005B9886FF02C05A9A01C05A985B9A5B98D5
:1002600085FF02C05A9A01C05A985B9A5B9884FF36
:1002700002C05A9A01C05A985B9A5B9883FF02C0E9
:100280005A9A01C05A985B9A5B9882FF02C05A9AA8
:1002900001C05A985B9A5B9881FF02C05A9A01C0CC
:1002A0005A985B9A5B9880FF02C05A9A01C05A988C
:1002B0005B9A5B980895DC018D919C91009739F0D1
:1002C000DC01ED91FC910280F381E02D0994089509
:1002D00087FF02C05E9A01C05E985F9A5F9886FFB2
:1002E00002C05E9A01C05E985F9A5F9885FF02C067
:1002F0005E9A01C05E985F9A5F9884FF02C05E9A22
:1003000001C05E985F9A5F9883FF02C05E9A01C049
:100310005E985F9A5F9882FF02C05E9A01C05E9805
:100320005F9A5F9881FF02C05E9A01C05E985F9AF3
:100330005F9880FF02C05E9A01C05E985F9A5F98E6
:1003400008950F931F93CF93DF93EB018C01015F0F
:100350001F4FDC011F968D919C915097009739F0AB
:10036000DC01ED91FC910190F081E02D099580E098
:100370000E94DC0080E00E94DC0080E00E94DC0043
:1003800080E00E94DC008C819D81181619060CF01B
:1003900054C08FEF0E94DC00E881F9812281222382
:1003A00021F03885230F08F42FEF3E85239F020E9E
:1003B00020E0211D1124822F0E94DC00E881F981B8
:1003C0002181222321F03F81230F08F42FEF3D8567
:1003D000239F020E20E0211D1124822F0E94DC00A9
:1003E000E881F9812081222321F03E81230F08F446
:1003F0002FEF3C85239F020E20E0211D1124822F28
:100400000E94DC0089859E81891B8E838A859F815D
:10041000891B8F838B859885891B88872F85888189
:100420009981820F911D27FD9A95998388838C81EC
:100430009D8101979D838C83A6CF2A813B8137FFC5
:1004400002C0215E3F4FE90185E0D595C7958A95A9
:10045000E1F78FEF0E94DC0080E00E94DC0080E08A
:100460000E94DC0080E00E94DC00219790F7C80128
:10047000DF91CF911F910F910C94CF00549A559A10
:100480000F960C94CF000F931F93CF93DF93EB0144
:100490008C01015F1F4FDC011F968D919C9150973D
:1004A000009739F0DC01ED91FC910190F081E02D95
:1004B000099580E00E94220180E00E94220180E0F4
:1004C0000E94220180E00E9422018C819D811816E9
:1004D00019060CF054C08FEF0E942201E881F981C7
:1004E0002281222321F03885230F08F42FEF3E8547
:1004F000239F020E20E0211D1124822F0E94220141
:10050000E881F9812181222321F03F81230F08F422
:100510002FEF3D85239F020E20E0211D1124822F05
:100520000E942201E881F9812081222321F03E816D
:10053000230F08F42FEF3C85239F020E20E0211D9E
:100540001124822F0E94220189859E81891B8E831E
:100550008A859F81891B8F838B859885891B8887D6
:100560002F8588819981820F911D27FD9A95998306
:1005700088838C819D8101979D838C83A6CF2A815E
:100580003B8137FF02C0215E3F4FE90185E0D595F1
:10059000C7958A95E1F78FEF0E94220180E00E94C3
:1005A000220180E00E94220180E00E942201219726
:1005B00090F7C801DF91CF911F910F910C94150115
:1005C000529A539A0F960C9415010F931F93CF9341
:1005D000DF93EB018C01015F1F4FDC011F968D91B2
:1005E0009C915097009739F0DC01ED91FC910190BE
:1005F000F081E02D099580E00E94680180E00E9472
:10060000680180E00E94680180E00E9468018C819E
:100610009D81181619060CF054C08FEF0E946801D6
:10062000E881F9812281222321F03885230F08F403
:100630002FEF3E85239F020E20E0211D1124822FE3
:100640000E946801E881F9812181222321F03F8104
:10065000230F08F42FEF3D85239F020E20E0211D7C
:100660001124822F0E946801E881F98120812223D0
:1006700021F03E81230F08F42FEF3C85239F020ECB
:1006800020E0211D1124822F0E94680189859E810E
:10069000891B8E838A859F81891B8F838B85988593
:1006A000891B88872F8588819981820F911D27FD5D
:1006B0009A95998388838C819D8101979D838C83F2
:1006C000A6CF2A813B8137FF02C0215E3F4FE9015F
:1006D00085E0D595C7958A95E1F78FEF0E9468016F
:1006E00080E00E94680180E00E94680180E00E9432
:1006F0006801219790F7C801DF91CF911F910F9169
:100700000C945B01569A579A0F960C945B010F93C9
:100710001F93CF93DF93CDB7DEB762970FB6F894F0
:10072000DEBF0FBECDBF8C01F901DC011C968C91A0
:100730007A8369835C834B835E834D8390819D873D
:1007400091819E8792819F87813029F4CE01019605
:100750000E94820006C01C861B861A86198618868F
:100760001F8283E0888B1A8A198AD801ED91FC9147
:100770000484F585E02DBE016F5F7F4FC8010995A8
:1007800062960FB6F894DEBF0FBECDBFDF91CF915A
:100790001F910F9108950F931F93CF93DF93CDB7C0
:1007A000DEB762970FB6F894DEBF0FBECDBF8C01E7
:1007B000F901DC011C968C917A8369835C834B83FD
:1007C0005E834D8390819D8791819E8792819F87D3
:1007D000813029F4CE0101960E94820006C01C8659
:1007E0001B861A86198618861F82188A1A8A198A01
:1007F000D801ED91FC910484F585E02DBE016F5F79
:100800007F4FC801099562960FB6F894DEBF0FBE00
:10081000CDBFDF91CF911F910F91089580E090E0BF
:100820000895FC01858596850895CF93DF9300D0C8
:1008300000D000D0CDB7DEB7AB011C821D821E8276
:10084000DC01ED91FC910190F081E02D19821A827A
:100850001B829E012F5F3F4FBE016C5F7F4F09954A
:1008600026960FB6F894DEBF0FBECDBFDF91CF91B5
:10087000089585ED8093BC008091BC0084FDFCCF81
:100880001092AC0108954091AB01262F30E0240F67
:10089000311D21323105DCF42091AC012430C9F442
:1008A000FC0180E090E0861758F43091AB01219173
:1008B000DC01A557BE4FA30FB11D2C930196F3CFBA
:1008C0008091AB01680F6093AB0180E0089581E0F7
:1008D000089582E00895FC0188E091E0918380838F
:1008E000138212828FEF8683878380878187828736
:1008F000838781E08487168615861582148280910D
:10090000690690916A06892B21F4F0936A06E093B8
:100910006906A0918801B0918901109721F0159680
:10092000FC93EE931497F0938901E093880188E19A
:1009300091E091838083089582E094E023EB30E09E
:100940002115310569F440911B0640930204409142
:100950001C064093030440911D06409304040EC0FE
:10096000FC01EA5EFD4F408133964083329740811F
:10097000339640833297408133964083215031092A
:1009800003972F3F4FEF3407D9F608958EBD00002F
:100990000DB407FEFDCF8EB508958FEF0C94C604FD
:1009A00008958FEF9FEF08958FEF9FEF0895809147
:1009B000F90190E091958195910908950F931F9306
:1009C000CF93DF93EB010E94530F8B010E94CD0464
:1009D0008F3F49F00E94530F601B710B6C177D070E
:1009E000A8F380E001C081E0DF91CF911F910F91CA
:1009F00008953F924F925F926F927F928F929F9253
:100A0000AF92BF92CF92DF92EF92FF920F931F931C
:100A1000CF93DF93CDB7DEB72C970FB6F894DEBF38
:100A20000FBECDBF5C01DC015B968D909C905C9706
:100A30001696CD90DD90ED90FC901997C114D104DD
:100A4000E104F10439F0BFEFCB1ADB0AEB0AFB0A31
:100A5000312C07C0F401C080D180E280F3803324C0
:100A60003394F40181859285A385B4859C01AD0101
:100A70002F5F3F4F4F4F5F4F29873A874B875C87E8
:100A8000260137011D821E821F821886F40181858E
:100A90009285A385B4852D813E814F815885281785
:100AA00039074A075B0708F063C089859A85AB85DB
:100AB000BC858C159D05AE05BF0550F482E0C82E9F
:100AC000D12CE12CF12C92E0492E512C612C712C6F
:100AD0009E012F5F3F4FB701A601C4010E94DE0DAA
:100AE000882309F445C089819A81AB81BC81892B17
:100AF0008A2B8B2B41F0260137019FEF491A590AA7
:100B0000690A790A05C0C414D504E604F70491F013
:100B10002D813E814F8158852F5F3F4F4F4F5F4F53
:100B20002D833E834F8358873FEFC31AD30AE30ACE
:100B3000F30AACCF0FEF1FEF2FEF3FE0B301A2019D
:100B4000C4010E943E0D882399F0D50116964D915F
:100B50005D916D917C911997411551056105710564
:100B600049F093018201C4010E943E0D811102C02F
:100B700080E02AC0D50116964D925D926D927C92CE
:100B80001997332051F0D301C2010196A11DB11D67
:100B9000F40180839183A283B383F5018789908DCB
:100BA000A18DB28D892B8A2B8B2B69F4D501579699
:100BB0004D925D926D927C925A9714968C911497F7
:100BC000806814968C9381E02C960FB6F894DEBF63
:100BD0000FBECDBFDF91CF911F910F91FF90EF908E
:100BE000DF90CF90BF90AF909F908F907F906F904D
:100BF0005F904F903F90089561E0FC0184810E94D6
:100C0000CD0E8091FA0181111092FA010895CF93CF
:100C1000DF93EC018E81882389F08F8198859C0178
:100C20002F5F3F4F38872F838230924018F40E9405
:100C3000CD04F3CFCE010E94FC051E82DF91CF913F
:100C40000895CF92DF92FF920F931F93CF93DF937C
:100C500000D000D0CDB7DEB76C01F62E29833A83E1
:100C60004B835C830E9407068091FA0129813A81B7
:100C70004B815C81811109C081E08093FA019091E0
:100C80001507809116079CBD8DBD60E0F60184813B
:100C900029833A834B835C830E94CD0E6CE271E022
:100CA000C6010E94DE048F2D80640E94C60408E104
:100CB00010E05C814B813A812981DA01C901002E63
:100CC00004C0B695A795979587950A94D2F729837E
:100CD0003A834B835C830E94C60408501109298122
:100CE0003A814B815C81083FFFEF1F0731F7FF20FE
:100CF00029F088E0F81204C087E803C085E901C044
:100D00008FEF0E94C60410E00E94CD04F601828796
:100D100087FF04C01F3F11F01F5FF6CF0F900F90A9
:100D20000F900F90DF91CF911F910F91FF90DF9067
:100D3000CF900895EF92FF920F931F93CF93DF937D
:100D4000EC017901411551056105710511F482E14C
:100D50003CC08B85833039F089E0440F551F661FF6
:100D6000771F8A95D1F79A01AB0168E1CE010E9405
:100D70002106882311F084E028C08EEF0E94C6046B
:100D800087018EEFF81AF80181918F010E94C60445
:100D90000E151F05C1F78FEF0E94C6048FEF0E944A
:100DA000C6040E94CD048A878F71853031F081E1BD
:100DB0008D83CE010E94FC0509C068E572E0CE017A
:100DC0000E94DE04811107C085E18D83CE010E945F
:100DD000FC0580E013C020E030E0A9016DE0CE0109
:100DE0000E942106811104C00E94CD04882311F0C5
:100DF00084E1EBCFCE010E94FC0581E0DF91CF9131
:100E00001F910F91FF90EF900895CF93DF93809102
:100E1000FD01882399F1C091FB01D091FC01409123
:100E2000000150910101609102017091030122E0E3
:100E300032E0CE010E949A06811102C080E01FC0FC
:100E40004091FE015091FF016091000270910102FA
:100E5000411551056105710579F022E032E0CE01BE
:100E60000E949A06882351F31092FE011092FF010E
:100E700010920002109201021092FD0181E0DF91B8
:100E8000CF910895CF93DF9300D0CDB7DEB7CB01DC
:100E9000642F49835A830E9443044981842F5A81D5
:100EA000952F0F900F90DF91CF910895CF93DF93FF
:100EB0001F92CDB7DEB7698361E0CE0101960E9433
:100EC000430481E090E00F90DF91CF910895BF92AD
:100ED000CF92DF92EF92FF920F931F93CF93DF9306
:100EE0006B017C01B42E8091000190910101A091D1
:100EF0000201B09103018C159D05AE05BF0509F4F3
:100F000076C00E940507882309F478C0C091FB01D0
:100F1000D091FC018E81882369F088819981AA8112
:100F2000BB81C816D906EA06FB0621F48F81988595
:100F3000892BB1F1C882D982EA82FB828B85A70115
:100F40009601833039F089E0220F331F441F551F6B
:100F50008A95D1F761E1CE010E942106882319F01C
:100F600083E08D8337C00E94530F8B010E94CD0414
:100F70008A878F3F49F40E94530F601B710B6D32BB
:100F80007140A0F38FE003C08E3F31F08DE08D8380
:100F9000CE010E94FC051EC018861F8281E08E8350
:100FA00002E012E00E94CD04F80181938F01F4E089
:100FB00002301F07B9F78F8198859E5F98878F83CE
:100FC0002985222319F08115924048F0CE010E9414
:100FD000070605C0CE010E94FC0580E00FC0C0924C
:100FE0000001D0920101E0920201F0920301809190
:100FF000FD01482F4B294093FD0181E0DF91CF9106
:101000001F910F91FF90EF90DF90CF90BF900895C8
:101010004F925F926F927F928F929F92AF92BF9208
:10102000EF92FF920F931F93CF93DF9300D000D0E6
:101030001F92CDB7DEB78C016D83DC0115968C91C4
:101040001597813009F057C014968C9181FF53C0D9
:101050005AC0038CF48DE02D258530E0275F3F4F8B
:101060002A013B01B1E04B1A510861087108022EB8
:1010700004C076946794579447940A94D2F7D501A4
:10108000C4010197A109B10904C0B695A795979528
:1010900087952A95D2F784159505A605B70508F01A
:1010A00070C0F8014789508D618D728D46835783DA
:1010B000608771872C013D017801E6E0EE0EF11C9E
:1010C000D801411451046104710409F464C01696F6
:1010D0004D915D916D917C91199797015B968D91E2
:1010E0009C915C970E94DE0DB1E04B1A510861089B
:1010F00071088111E5CF81E090E0F801938382834C
:1011000080E090E04FC182FF0EC0F8014285538518
:101110006485758583889488A588B688481559059F
:101120006A057B05F1F4D8011A964D915D916D9198
:101130007C911D975B968D919C915C97FC017480CE
:101140007A944A015B0129E0B694A7949794879416
:101150002A95D1F778207A01F1E0FF22772011F16A
:1011600064C081149104A104B10409F072CF168205
:10117000178210861186F80112861386148615864A
:10118000D2CF452B462B472B09F48BCF84199509D9
:10119000A609B7098FCF1A968D929D92AD92BC92F7
:1011A0001D97C1CFE114F10409F03FC0F801468159
:1011B000578160857185411551056105710549F4B7
:1011C0008789908DA18DB28D0097A105B10541F55C
:1011D00021C09E012F5F3F4F0E94DE0D882309F43E
:1011E0008FCF89819A81AB81BC81F801238D348DA9
:1011F000F9012789203129F048EF5FEF6FEF7FE099
:1012000004C048EF5FEF60E070E084179507A60721
:10121000B70730F0C8010E94F904811106C06BCFF6
:10122000F80186839783A087B187D8015B96ED91FB
:10123000FC915C9716968D909D90AD90BC901997FF
:10124000B2E08B1A9108A108B108058404C0880C8B
:10125000991CAA1CBB1C0A94D2F786859785A08985
:10126000B189880E991EAA1EBB1E870C911CA11C59
:10127000B11CE114F10409F5F80142855385648538
:10128000758583899489A589B689481759076A079E
:101290007B0798F00E940507882309F42CCF8092E1
:1012A000000190920101A0920201B092030180918D
:1012B000FD0181608093FD0108C041E0C501B401DA
:1012C0000E946707882309F416CFF701EE5FFD4FF0
:1012D0008D818083F80182859385A485B5850196EB
:1012E000A11DB11D82879387A487B587438954893F
:1012F00065897689481759076A077B0738F4838B15
:10130000948BA58BB68B848180688483D8011496D6
:101310008C9183FD03C081E090E044C0F801958189
:10132000992309F4E8CE87FF38C0668577858089E0
:10133000918941E00E946707882309F4DCCED80137
:101340005296EC91B0E2EB9F90011124D901AE5F6F
:10135000BD4F109709F4CFCEF8018581823050F44B
:1013600043895489658976895C964D935D936D9325
:101370007C935F97F8018789908DA18DB28DF901DB
:10138000EE5FFD4F938F828FB58BA48BD80114969F
:101390008C9114978F7714968C930E940507811176
:1013A000BACFA9CE0F900F900F900F900F90DF91B2
:1013B000CF911F910F91FF90EF90BF90AF909F90B2
:1013C0008F907F906F905F904F9008951F920F9233
:1013D0000FB60F9211242F933F934F935F936F9308
:1013E0007F938F939F93AF93BF93EF93FF938091DE
:1013F000B900887F803609F49CC068F5883209F40A
:101400005BC090F4803109F454C038F4882309F4A7
:10141000F6C0883009F44DC0F6C0883109F44CC0DC
:10142000803209F45DC0EFC0803409F468C048F42C
:10143000803309F455C0883309F0E5C08093D301A7
:10144000D8C0803509F44FC0883509F45DC08834B0
:1014500009F0D9C0D6C0883909F4C7C0A8F48837C4
:1014600009F467C038F4883609F463C0803709F49A
:1014700060C0C9C0883809F4B8C0803909F45FC0B9
:10148000803809F0C0C05BC0803B09F486C038F4E6
:10149000803A09F466C0883A09F47FC0B4C0803C41
:1014A00009F4A7C0883C09F4A4C0883B09F48AC0A9
:1014B000AAC08091F80110C09091F7018091F601C7
:1014C000981770F5E091F70181E08E0F8093F70196
:1014D000F0E0EA52FE4F80818093BB0085EC86C02D
:1014E0008093D3018EC0E091F70181E08E0F80934D
:1014F000F7018091BB00F0E0EA52FE4F80839091AB
:10150000F7018091F6016EC0E091F70181E08E0F46
:101510008093F7018091BB00F0E0EA52FE4F808398
:101520008091D50181116DC081E08093D40184EA5E
:1015300061C083E08093AC011092D201CFCF809143
:10154000D201803208F051C0E091D20181E08E0FCB
:101550008093D2018091BB00F0E0EE54FE4F808377
:10156000BDCF85EC8093BC001092AC018091D2017C
:10157000803230F4E091D201F0E0EE54FE4F108260
:101580006091D20170E0E091B001F091B10182EB85
:1015900091E009951092D20136C084E08093AC01AD
:1015A0001092AF011092AB01E091AD01F091AE014C
:1015B00009958091AB01811105C081E08093AB0159
:1015C00010928B01E091AF0181E08E0F8093AF010B
:1015D000F0E0E557FE4F80818093BB009091AF0112
:1015E0008091AB01981708F479CF85E88093BC000F
:1015F0000AC085EC8093BC001092AC0104C010922C
:10160000D3010E943904FF91EF91BF91AF919F9157
:101610008F917F916F915F914F913F912F910F909B
:101620000FBE0F901F901895CF92DF92EF92FF920E
:101630000F931F93CF93DF936C017A018B01C0E06E
:10164000D0E0CE15DF0589F0D8016D918D01D6016E
:10165000ED91FC910190F081E02DC6010995892B57
:1016600011F47E0102C02196ECCFC701DF91CF912A
:101670001F910F91FF90EF90DF90CF900895FC01A4
:10168000918D828D981761F0828DDF01A80FB11DB9
:101690005D968C91928D9F5F9F73928F90E00895DD
:1016A0008FEF9FEF0895FC01918D828D981731F097
:1016B000828DE80FF11D858D90E008958FEF9FEFEB
:1016C0000895FC01918D228D892F90E0805C9F4FC1
:1016D000821B91098F73992708958BE696E00E94EB
:1016E000610B21E0892B09F420E0822F0895FC0191
:1016F000848DDF01A80FB11DA35ABF4F2C91848D9B
:1017000090E001968F739927848FA689B7892C93CF
:10171000A089B1898C9180648C93938D848D98136A
:1017200006C00288F389E02D80818F7D8083089533
:10173000EF92FF920F931F93CF93DF93EC0181E021
:10174000888F9B8D8C8D981305C0E889F9898081DD
:1017500085FD24C0F62E0B8D10E00F5F1F4F0F7319
:101760001127E02E8C8DE8120CC00FB607FCFACFC3
:10177000E889F989808185FFF5CFCE010E94770B3A
:10178000F1CF8B8DFE01E80FF11DE35AFF4FF08280
:101790000B8FEA89FB898081806207C0EE89FF890F
:1017A0006083E889F98980818064808381E090E0AA
:1017B000DF91CF911F910F91FF90EF900895CF93FC
:1017C000DF93EC01888D8823C9F0EA89FB89808149
:1017D00085FD05C0A889B9898C9186FD0FC00FB61B
:1017E00007FCF5CF808185FFF2CFA889B9898C915C
:1017F00085FFEDCFCE010E94770BE7CFDF91CF9130
:10180000089580E090E0892B29F00E946D0B8111F2
:101810000C94000008952F923F924F925F926F9226
:101820007F928F929F92AF92BF92CF92DF92EF9270
:10183000FF920F931F93CF93DF93CDB7DEB7299716
:101840000FB6F894DEBF0FBECDBF898749835A8398
:101850006B837C830091690610916A06ADE74A2E7E
:10186000512C612C712C0115110509F46FC0D801A0
:10187000ED91FC910084F185E02DC80109951C01D2
:10188000F801A281B3811296C12CD12C7601812C52
:10189000912C540120E030E0A9010097A9F0FD014E
:1018A00032976081260F311D411D511D3196608197
:1018B000860E911CA11CB11C6C91C60ED11CE11CA2
:1018C000F11C01971396E9CFA0E5B0E00E94D41374
:1018D0006D837E838F839887A7E3B0E0A501940191
:1018E0000E94D4134B015C01ABE4B0E0A701960168
:1018F0000E94D413472F582F692F7727F5E0F29DC8
:101900009001F39D300D11248D819E81AF81B885AA
:10191000C92EDA2EEB2EFF24C20ED31EE11CF11CC1
:101920004C0C5D1C6E1C7F1C892C9A2CAB2CBB2490
:10193000480C591C6A1C7B1C440E551E661E771EE3
:10194000D80114960D911C9115978DCFB985CB2E8A
:10195000D12CE12CF12CA3019201C701B6010E9408
:101960006F13872E982EA92EBB2489819A81AB8173
:10197000BC8188169906AA06BB0660F0A7019601ED
:10198000BC01CD010E946F13A50194010E94931325
:10199000822F01C0898529960FB6F894DEBF0FBE4D
:1019A000CDBFDF91CF911F910F91FF90EF90DF900E
:1019B000CF90BF90AF909F908F907F906F905F90EF
:1019C0004F903F902F9008950E9408141F920F92FD
:1019D0000FB60F9211242F933F934F935F936F9302
:1019E0007F938F939F93AF93BF93EF93FF938BE678
:1019F00096E00E94770BFF91EF91BF91AF919F917D
:101A00008F917F916F915F914F913F912F910F90A7
:101A10000FBE0F901F9018951F920F920FB60F9246
:101A200011242F938F939F93EF93FF93E0917B0665
:101A3000F0917C068081E0918106F091820682FD22
:101A400012C09081809184068F5F8F7320918506EC
:101A5000821751F0E0918406F0E0E559F94F958F37
:101A60008093840601C08081FF91EF919F918F91B7
:101A70002F910F900FBE0F901F9018954F925F926D
:101A80006F927F928F929F92AF92BF92CF92DF928E
:101A9000EF92FF920F931F93CF93DF93EC016A01B4
:101AA0007B0128013901423051056105710510F4AF
:101AB00080E073C089859A85AB85BC850196A11DA0
:101AC000B11D84179507A607B70790F38B889C88EC
:101AD000AD88BE888F89803129F4BB27AF2D9E2D1C
:101AE0008D2D09C0DB01CA0147E0B695A7959795F2
:101AF00087954A95D1F7880E991EAA1EBB1E809124
:101B0000000190910101A0910201B091030188169A
:101B10009906AA06BB0679F48F898031A1F4DD24E9
:101B2000EE24FF24C601880F991FFC01EE5FFD4FD4
:101B30005182408219C040E0C501B4010E9467078C
:101B40008111EACFB5CFE894C7F8DD24EE24FF2455
:101B5000C601880F991F880F991FFC01EE5FFD4F8A
:101B600040825182628273828091FD018160809304
:101B7000FD018A89823080F08D819E81AF81B88598
:101B8000880E991EAA1EBB1E8092FE019092FF0134
:101B9000A0920002B092010281E0DF91CF911F91EB
:101BA0000F91FF90EF90DF90CF90BF90AF909F90FC
:101BB0008F907F906F905F904F9008958F929F923B
:101BC000AF92BF92CF92DF92EF92FF920F931F934B
:101BD000CF93DF93FC0181859285A385B48501961F
:101BE000A11DB11D84179507A607B70710F480E063
:101BF0005CC083899489A589B689C789C03129F4D5
:101C0000852E962EA72EBB2409C04A015B01C7E092
:101C1000B694A79497948794CA95D1F7E9016A017D
:101C20007B018F01BC01CD01680D791D8A1D9B1DB3
:101C30008090000190900101A0900201B0900301FA
:101C4000681579058A059B0599F4F8018789803123
:101C5000A9F4B701A601552766277727440F551F1A
:101C6000FA01EE5FFD4F80819181A0E0B0E018C0E5
:101C700040E00E9467078111E8CFB9CFB701A60104
:101C80004F77552766277727440F551F440F551F59
:101C9000FA01EE5FFD4F80819181A281B381BF7017
:101CA00088839983AA83BB8381E0DF91CF911F91C1
:101CB0000F91FF90EF90DF90CF90BF90AF909F90EB
:101CC0008F9008953FB7F89480911C0790911D075D
:101CD000A0911E07B0911F0726B5A89B05C02F3FF6
:101CE00019F00196A11DB11D3FBFBA2FA92F982F42
:101CF0008827820F911DA11DB11DBC01CD0142E0BD
:101D0000660F771F881F991F4A95D1F708950F9383
:101D10001F93CF93DF93EC018B01E881F98104805D
:101D2000F581E02D09951B830A838CE390E09E8763
:101D30008D87E881F9810284F385E02DCE01099534
:101D4000009729F19C0140E050E060E472E48FE0EC
:101D500090E00E94B513722F632F00910B07109132
:101D60000C0720910D0730910E07872F962FDA016F
:101D700080179107A207B30710F4D901C801809317
:101D80000B0790930C07A0930D07B0930E07CE019D
:101D9000DF91CF911F910F91089590E0FC01E656DD
:101DA000FF4F3491FC01EA57FF4F2491FC01EE589C
:101DB000FF4FE491EE2309F43BC0332339F1333074
:101DC00091F038F43130A9F0323001F584B58F7DCF
:101DD00012C0373091F03830A1F03430B9F480912E
:101DE00080008F7D03C0809180008F77809380007A
:101DF0000DC084B58F7784BD09C08091B0008F7706
:101E000003C08091B0008F7D8093B000F0E0EE0FB2
:101E1000FF1FE859FF4FA591B4918FB7F894EC914B
:101E2000611103C020952E2301C02E2B2C938FBF50
:101E300008958F929F92AF92BF92CF92DF92EF92CE
:101E4000FF926B017C010E94620E4B015C01C11488
:101E5000D104E104F104F1F00E94620EDC01CB0137
:101E600088199909AA09BB09883E9340A105B105C3
:101E700070F321E0C21AD108E108F10888EE880E5B
:101E800083E0981EA11CB11CC114D104E104F1042B
:101E900019F7DDCFFF90EF90DF90CF90BF90AF901C
:101EA0009F908F9008952FB7F894609118077091C4
:101EB000190780911A0790911B072FBF08953F9231
:101EC0004F925F926F927F928F929F92AF92BF924A
:101ED000CF92DF92EF92FF920F931F93CF93DF93F6
:101EE00000D01F92CDB7DEB7F82E80910B079091EE
:101EF0000C07A0910D07B0910E07892B8A2B8B2B15
:101F0000E9F00E94620E00912607109127072091A8
:101F1000280730912907DC01CB01801B910BA20B14
:101F2000B30B00910B0710910C0720910D07309116
:101F30000E0780179107A207B307B8F20E94620E3E
:101F400060932607709327078093280790932907AB
:101F5000E0911307F0911407309759F040910F0763
:101F60005091100760911107709112078F2D0995FC
:101F7000F82E0091690610916A064F2C512C612CA5
:101F8000712C0115110509F461C0D8011C96EC9063
:101F90001C978091090790910A078436910510F4E7
:101FA0001C961C92D801ED91FC91A280B3801982FD
:101FB0001A821B82F11014C0F80145855685628192
:101FC00073819E012F5F3F4FC801F5010995D8012C
:101FD0001C96EC921C9714960D911C911597D1CFDD
:101FE000F8013996CE0101966C0148019CE0890EFA
:101FF000911CDF0113973C902191332001F12223A2
:10200000F1F0822F90E0A0E0B0E09C01AD012F5FE5
:102010003F4F4F4F5F4FC301B2010E946F139B01AF
:10202000AC01832D90E0A0E0B0E0BC01CD016F5F7A
:102030007F4F8F4F9F4F0E946F13D6018C93BFEF3E
:10204000CB1ADB0AE815F905A1F6B6CF8091240773
:10205000909125078C010F5F1F4F10932507009368
:10206000240749979CF10E94530F4B015C0188EEB5
:1020700093E0089FB001099F700D189F700D112407
:10208000072E000C880B990BC0902007D0902107D9
:10209000E0902207F0902307A50194012C193D0937
:1020A0004E095F090E94931330930A072093090792
:1020B00010922507109224070E94530F6093200767
:1020C0007093210780932207909323070F900F901E
:1020D0000F90DF91CF911F910F91FF90EF90DF90C4
:1020E000CF90BF90AF909F908F907F906F905F90B8
:1020F0004F903F900895CF92DF92EF92FF920E940F
:10210000530F6B017C0161E070E080E090E00E9481
:10211000190F809108070E945F0F0E94530FDC0186
:10212000CB018C199D09AE09BF09C297A105B10564
:1021300050F3FF90EF90DF90CF9008951F920F9291
:102140000FB60F9211242F933F938F939F93AF93CA
:10215000BF938091180790911907A0911A07B09129
:102160001B073091170723E0230F2D3720F401962A
:10217000A11DB11D05C026E8230F0296A11DB11DAA
:10218000209317078093180790931907A0931A07B5
:10219000B0931B0780911C0790911D07A0911E070B
:1021A000B0911F070196A11DB11D80931C0790934C
:1021B0001D07A0931E07B0931F07BF91AF919F917A
:1021C0008F913F912F910F900FBE0F901F901895F8
:1021D000CF93DF93CDB7DEB7A7970FB6F894DEBFE6
:1021E0000FBECDBF789484B5826084BD84B5816014
:1021F00084BD85B5826085BD85B5816085BD8091D2
:102200006E00816080936E00109281008091810049
:102210008260809381008091810081608093810041
:10222000809180008160809380008091B100846003
:102230008093B1008091B00081608093B000809164
:102240007A00846080937A0080917A008260809323
:102250007A0080917A00816080937A0080917A0080
:10226000806880937A001092C10060ED77E080E092
:1022700090E00E94190FE0917B06F0917C0682E0CD
:102280008083E0917706F09178061082E0917906DC
:10229000F0917A068FEC808310928306E0917F069E
:1022A000F091800686E08083E0917D06F0917E06C5
:1022B000808180618083E0917D06F0917E0680813F
:1022C00088608083E0917D06F0917E068081806841
:1022D0008083E0917D06F0917E0680818F7D8083F2
:1022E00082E3809308078BE09CE09093140780932F
:1022F000130780E197E2A0E0B0E080930F0790938E
:102300001007A0931107B093120780912F06811137
:1023100011C08EE196E00E946B048AE291E09093F6
:102320001F0680931E0610922E0610922D0681E045
:1023300080932F0662E074E08EE196E00E94870EA3
:1023400080914806811111C087E396E00E946B04DA
:102350008CE391E0909338068093370610924706FD
:102360001092460681E0809348066AE675E087E3AE
:1023700096E00E94870E80916106811111C080E570
:1023800096E00E946B048EE491E090935106809356
:1023900050061092600610925F0681E080936106FD
:1023A00066EB74E080E596E00E94870E1FEF65E023
:1023B000262E312C0E94530F4B015C0119831A8287
:1023C0001B821C8329E92D8383E38E831F83188757
:1023D000198680E88A871B871C861D861E871F86B4
:1023E00086E6888B8EE4898B1A8B1B8A1C8A1D8B50
:1023F0008FE78E8B1F8A188F198F1A8E1B8FE12CF7
:10240000F12CC701B1010E947F139B016C01CB012C
:10241000019669E070E00E947F13FC01EE0FFF1F40
:102420008E0F9F1FE1E0F0E0EC0FFD1FE80FF91F9A
:10243000408051815AA30281C90169E070E00E9485
:102440007F13FC01EE0FFF1F8E0F9F1FE1E0F0E0F6
:10245000EC0FFD1FE80FF91F4081518022812BA353
:10246000242F30E0652C712C5BA1E52FF0E0C90131
:102470008419910997FF03C0919581959109B10144
:102480000E947F137DA36CA3C3016AA1861B9109DF
:1024900097FF03C0919581959109B1010E947F1327
:1024A0007FA36EA3CF01801B910997FF03C0919575
:1024B00081959109B1010E947F13ACA1BDA1CA9E73
:1024C000C001CB9E900DDA9E900D1124441520F48E
:1024D000A901480F591F03C0A901481B590B8EA120
:1024E0009FA1C89E9001C99E300DD89E300D112429
:1024F0009AA1591618F4260D371D04C0D301A21B4A
:10250000B30B9D01C69EC001C79E900DD69E900D37
:102510001124BBA1B01718F48E0F9F1F04C0BF0178
:10252000681B790BCB014093020420930304809332
:102530000404809108070E945F0F0E947B100E9494
:102540009C047FEFE71AF70A84EBE816F10409F020
:1025500058CFC12CD12C7601C3940E949C04809149
:1025600008070E945F0F0E947B10D701C6010197E8
:10257000A109B10988159905AA05BB0539F0D7014C
:10258000C60188199909AA09BB0906C0D501C40169
:102590008C199D09AE09BF09E2E0CE0ED11CE11CE9
:1025A000F11C81329E44A105B105B8F220910907C2
:1025B00030910A0740E050E019A2BE016F5D7F4FE5
:1025C0007B01CA01B9012AE030E040E050E00E94FE
:1025D0009313605DD7016E937D012115310541058F
:1025E000510579F7109769F0FD0101900020E9F796
:1025F0003197AF014A1B5B0BBD018BE696E00E9451
:10260000140B42E050E064E871E08BE696E00E9433
:10261000140B0E94010CCECEEBE6F6E01382128280
:1026200088EE93E0A0E0B0E084839583A683B7832F
:1026300020E631E03183208325EC30E035872487A4
:1026400024EC30E03787268720EC30E0318B208B7C
:1026500021EC30E0338B228B22EC30E0358B248B65
:1026600026EC30E0378B268B118E128E138E148E53
:10267000E8E0F7E02FEF20831282118214861386A0
:102680004FEF5FEFBA014783508761877287EAE2B5
:10269000F7E0158216821186138642E050E060E072
:1026A00070E0448755876687778713A215A614A61E
:1026B00020E731E033A722A717A6E5E1F7E020E500
:1026C00020831182E3E7F7E01382128284839583EB
:1026D000A683B78388E791E0918380830895DB0127
:1026E0008F939F930E94D413BF91AF91A29F800DAF
:1026F000911DA39F900DB29F900D1124089597FBFB
:10270000072E16F4009407D077FD09D00E94DF133E
:1027100007FC05D03EF4909581959F4F08957095E4
:1027200061957F4F0895A1E21A2EAA1BBB1BFD01E4
:102730000DC0AA1FBB1FEE1FFF1FA217B307E407A0
:10274000F50720F0A21BB30BE40BF50B661F771FF8
:10275000881F991F1A9469F76095709580959095D8
:102760009B01AC01BD01CF010895052E97FB1EF41E
:1027700000940E94CC1357FD07D00E94931307FCCE
:1027800003D04EF40C94CC13509540953095219580
:102790003F4F4F4F5F4F089590958095709561958D
:1027A0007F4F8F4F9F4F08950E94F913A59F900D63
:1027B000B49F900DA49F800D911D11240895AA1B14
:1027C000BB1B51E107C0AA1FBB1FA617B70710F01C
:1027D000A61BB70B881F991F5A95A9F7809590954E
:1027E000BC01CD010895EE0FFF1F0590F491E02D7F
:1027F0000994A29FB001B39FC001A39F700D811DDA
:102800001124911DB29F700D811D1124911D0895F9
:0E28100081E090E0F8940C940D14F894FFCF42
:10281E00FFFFFFFF00000000E40CE40CE40C1504C5
:10282E0011040E0400000000CB038703E40C150412
:10283E0011040E04E40C00000000CB0387033E02DB
:10284E00150411040E04A10100000000CB03870340
:10285E00E002150411040E04430200000000CB0335
:10286E0087038203150411040E04E5020000000024
:10287E00980B140B610B3F0B530BDF0B000000008A
:10288E000808140B0000000056074207D704D404B2
:08289E00D104D0040D0A000072
:00000001FF
