:100000000C9458000C9480000C9480000C94800098
:100010000C9480000C9480000C9480000C94800060
:100020000C9480000C9480000C9480000C94800050
:100030000C9480000C9480000C9480000C94800040
:100040000C9416120C9480000C944A080C9424080A
:100050000C9480000C9480000C9480000C94800020
:100060000C9443040C94800000000000250028003C
:100070002B00040404040404040402020202020229
:10008000030303030303010204081020408001025C
:1000900004081020010204081020000000080002DB
:1000A0000100000304070000000000000000E71644
:1000B00011241FBECFEFD8E0DEBFCDBF11E0A0E01E
:1000C000B1E0E4EDFFE202C005900D92A639B10760
:1000D000D9F727E0A6E9B1E001C01D92AD38B2071B
:1000E000E1F710E0C8E5D0E004C02197FE010E94CE
:1000F000DD17C735D107C9F70E9460120C94E817C5
:100100000C94000085ED8093BC008091BC0084FDC0
:10011000FCCF1092E1010895EF92FF920F931F938D
:10012000CF93DF93EC01909198019F5F292F277067
:100130002093980190FF02C090E801C090E021FD5B
:100140009064247009F0906220E1290FFE013C9632
:100150007E018FE0E80EF11C00E011E06191662362
:1001600031F070E0C8010E94B5176F5F01C060E018
:10017000DF0114976C93322F369F030E30E0311D50
:100180001124CF010797311103C0EC01188203C07D
:100190003150EC013883662311F061506C93EE15F9
:1001A000FF05E1F6DF91CF911F910F91FF90EF9046
:1001B0000895DC018D919C91009739F0DC01ED915F
:1001C000FC910280F381E02D0994089587FF02C01D
:1001D0005C9A01C05C985D9A5D9886FF02C05C9A4B
:1001E00001C05C985D9A5D9885FF02C05C9A01C071
:1001F0005C985D9A5D9884FF02C05C9A01C05C982F
:100200005D9A5D9883FF02C05C9A01C05C985D9A1C
:100210005D9882FF02C05C9A01C05C985D9A5D980F
:1002200081FF02C05C9A01C05C985D9A5D9880FF76
:1002300002C05C9A01C05C985D9A5D980895DC01EB
:100240008D919C91009739F0DC01ED91FC91028039
:10025000F381E02D0994089587FF02C05A9A01C0E6
:100260005A985B9A5B9886FF02C05A9A01C05A98C6
:100270005B9A5B9885FF02C05A9A01C05A985B9AB4
:100280005B9884FF02C05A9A01C05A985B9A5B98A7
:1002900083FF02C05A9A01C05A985B9A5B9882FF0A
:1002A00002C05A9A01C05A985B9A5B9881FF02C0BB
:1002B0005A9A01C05A985B9A5B9880FF02C05A9A7A
:1002C00001C05A985B9A5B980895DC018D919C91CE
:1002D000009739F0DC01ED91FC910280F381E02D73
:1002E0000994089587FF02C05E9A01C05E985F9AE4
:1002F0005F9886FF02C05E9A01C05E985F9A5F9821
:1003000085FF02C05E9A01C05E985F9A5F9884FF85
:1003100002C05E9A01C05E985F9A5F9883FF02C038
:100320005E9A01C05E985F9A5F9882FF02C05E9AF3
:1003300001C05E985F9A5F9881FF02C05E9A01C01B
:100340005E985F9A5F9880FF02C05E9A01C05E98D7
:100350005F9A5F9808950F931F93CF93DF93EB01FC
:100360008C01015F1F4FDC011F968D919C9150976E
:10037000009739F0DC01ED91FC910190F081E02DC6
:10038000099580E00E94E60080E00E94E60080E09F
:100390000E94E60080E00E94E6008C819D81181694
:1003A00019060CF054C08FEF0E94E600E881F98135
:1003B0002281222321F03885230F08F42FEF3E8578
:1003C000239F020E20E0211D1124822F0E94E600AF
:1003D000E881F9812181222321F03F81230F08F454
:1003E0002FEF3D85239F020E20E0211D1124822F37
:1003F0000E94E600E881F9812081222321F03E81DC
:10040000230F08F42FEF3C85239F020E20E0211DCF
:100410001124822F0E94E60089859E81891B8E838C
:100420008A859F81891B8F838B859885891B888707
:100430002F8588819981820F911D27FD9A95998337
:1004400088838C819D8101979D838C83A6CF2A818F
:100450003B8137FF02C0215E3F4FE90185E0D59522
:10046000C7958A95E1F78FEF0E94E60080E00E9431
:10047000E60080E00E94E60080E00E94E60021970E
:1004800090F7C801DF91CF911F910F910C94D90083
:10049000549A559A0F960C94D9000F931F93CF93AB
:1004A000DF93EB018C01015F1F4FDC011F968D91E3
:1004B0009C915097009739F0DC01ED91FC910190EF
:1004C000F081E02D099580E00E942C0180E00E94DF
:1004D0002C0180E00E942C0180E00E942C018C8184
:1004E0009D81181619060CF054C08FEF0E942C0144
:1004F000E881F9812281222321F03885230F08F435
:100500002FEF3E85239F020E20E0211D1124822F14
:100510000E942C01E881F9812181222321F03F8171
:10052000230F08F42FEF3D85239F020E20E0211DAD
:100530001124822F0E942C01E881F981208122233D
:1005400021F03E81230F08F42FEF3C85239F020EFC
:1005500020E0211D1124822F0E942C0189859E817B
:10056000891B8E838A859F81891B8F838B859885C4
:10057000891B88872F8588819981820F911D27FD8E
:100580009A95998388838C819D8101979D838C8323
:10059000A6CF2A813B8137FF02C0215E3F4FE90190
:1005A00085E0D595C7958A95E1F78FEF0E942C01DC
:1005B00080E00E942C0180E00E942C0180E00E94DB
:1005C0002C01219790F7C801DF91CF911F910F91D6
:1005D0000C941F01529A539A0F960C941F010F937B
:1005E0001F93CF93DF93EB018C01015F1F4FDC0161
:1005F0001F968D919C915097009739F0DC01ED91F9
:10060000FC910190F081E02D099580E00E9472013B
:1006100080E00E94720180E00E94720180E00E94EE
:1006200072018C819D81181619060CF054C08FEF51
:100630000E947201E881F9812281222321F038850C
:10064000230F08F42FEF3E85239F020E20E0211D8B
:100650001124822F0E947201E881F98121812223D5
:1006600021F03F81230F08F42FEF3D85239F020ED9
:1006700020E0211D1124822F0E947201E881F9815E
:100680002081222321F03E81230F08F42FEF3C85A7
:10069000239F020E20E0211D1124822F0E9472014F
:1006A00089859E81891B8E838A859F81891B8F8383
:1006B0008B859885891B88872F8588819981820FF2
:1006C000911D27FD9A95998388838C819D8101973F
:1006D0009D838C83A6CF2A813B8137FF02C0215E98
:1006E0003F4FE90185E0D595C7958A95E1F78FEFF2
:1006F0000E94720180E00E94720180E00E947201FB
:1007000080E00E947201219790F7C801DF91CF919C
:100710001F910F910C946501569A579A0F960C945D
:1007200065010F931F93CF93DF93CDB7DEB7629729
:100730000FB6F894DEBF0FBECDBF8C01F901DC010E
:100740001C968C917A8369835C834B835E834D8393
:1007500090819D8791819E8792819F87813029F426
:10076000CE0101960E948C0006C01C861B861A864C
:10077000198618861F8283E0888B1A8A198AD80105
:10078000ED91FC910484F585E02DBE016F5F7F4FF4
:10079000C801099562960FB6F894DEBF0FBECDBFB3
:1007A000DF91CF911F910F9108950F931F93CF93D6
:1007B000DF93CDB7DEB762970FB6F894DEBF0FBEFA
:1007C000CDBF8C01F901DC011C968C917A83698381
:1007D0005C834B835E834D8390819D8791819E874F
:1007E00092819F87813029F4CE0101960E948C006E
:1007F00006C01C861B861A86198618861F82188AD0
:100800001A8A198AD801ED91FC910484F585E02DAE
:10081000BE016F5F7F4FC801099562960FB6F894CD
:10082000DEBF0FBECDBFDF91CF911F910F91089515
:1008300080E090E00895FC01858596850895CF932A
:10084000DF9300D000D000D0CDB7DEB7AB011C8263
:100850001D821E82DC01ED91FC910190F081E02D62
:1008600019821A821B829E012F5F3F4FBE016C5F6F
:100870007F4F099526960FB6F894DEBF0FBECDBF09
:10088000DF91CF9108951F920F920FB60F9211240E
:100890002F933F934F935F936F937F938F939F9388
:1008A000AF93BF93EF93FF938091B900887F803619
:1008B00009F49CC068F5883209F45BC090F480317B
:1008C00009F454C038F4882309F4F6C0883009F4D8
:1008D0004DC0F6C0883109F44CC0803209F45DC0C7
:1008E000EFC0803409F468C048F4803309F455C07F
:1008F000883309F0E5C08093E001D8C0803509F461
:100900004FC0883509F45DC0883409F0D9C0D6C01D
:10091000883909F4C7C0A8F4883709F467C038F4E7
:10092000883609F463C0803709F460C0C9C08838CC
:1009300009F4B8C0803909F45FC0803809F0C0C03C
:100940005BC0803B09F486C038F4803A09F466C085
:10095000883A09F47FC0B4C0803C09F4A7C0883C41
:1009600009F4A4C0883B09F48AC0AAC08091060299
:1009700010C09091050280910402981770F5E091E3
:10098000050281E08E0F80930502F0E0EC51FE4FEE
:1009900080818093BB0085EC86C08093E0018EC08F
:1009A000E091050281E08E0F809305028091BB00EB
:1009B000F0E0EC51FE4F808390910502809104029B
:1009C0006EC0E091050281E08E0F80930502809158
:1009D000BB00F0E0EC51FE4F80838091E301811178
:1009E0006DC081E08093E20184EA61C083E080937E
:1009F000E1011092DF01CFCF8091DF01803208F05A
:100A000051C0E091DF0181E08E0F8093DF01809182
:100A1000BB00F0E0E154FE4F8083BDCF85EC8093B6
:100A2000BC001092E1018091DF01803230F4E0914E
:100A3000DF01F0E0E154FE4F10826091DF0170E0D1
:100A4000E091BD01F091BE018FEB91E0099510920C
:100A5000DF0136C084E08093E1011092BC01109266
:100A6000BB01E091B901F091BA0109958091BB01F8
:100A7000811105C081E08093BB0110929901E09142
:100A8000BC0181E08E0F8093BC01F0E0E756FE4F81
:100A900080818093BB009091BC018091BB0198172D
:100AA00008F479CF85E88093BC000AC085EC809378
:100AB000BC001092E10104C01092E0010E9482008B
:100AC000FF91EF91BF91AF919F918F917F916F9126
:100AD0005F914F913F912F910F900FBE0F901F90FC
:100AE00018954091BB01262F30E0240F311D213293
:100AF0003105DCF42091E1012430C9F4FC0180E0EF
:100B000090E0861758F43091BB012191DC01A75683
:100B1000BE4FA30FB11D2C930196F3CF8091BB0163
:100B2000680F6093BB0180E0089581E0089582E042
:100B30000895CF93DF931F92CDB7DEB7698361E04D
:100B4000CE0101960E94710581E090E00F90DF9147
:100B5000CF910895FC0186E191E091838083138217
:100B600012828FEF8683878380878187828783873E
:100B700081E0848716861586158214828091770617
:100B800090917806892B21F4F0937806E09377060C
:100B9000A0919601B0919701109721F01596FC93C2
:100BA000EE931497F0939701E093960186E291E01B
:100BB0009183808308958BE594E023EB30E0211549
:100BC000310569F44091740640935B0440917506C9
:100BD00040935C044091760640935D040EC0FC0196
:100BE000EA5EFD4F408133964083329740813396D1
:100BF00040833297408133964083215031090397D7
:100C00002F3F4FEF3407D9F60895FC014081318121
:100C1000228180E090E0FC01E55AFB4F4083318364
:100C2000228303968C3152E09507A9F70895CF935C
:100C3000DF93C4EFD1E08EEF0E947A0F0E94CD10B7
:100C40002197C9F7FE01E55AFB4F108211821282EB
:100C50002396CC3182E0D807A9F7DF91CF910C948D
:100C6000CD10482F8074242F46FD2095E22FEF737E
:100C70002F7081112F5FE695E695E695E670F0E01E
:100C8000E65FFE4F9181929F9001112484E035959B
:100C900027958A95E1F78081280F822F47FD81955E
:100CA00080580895CF92DF92EF92FF920F931F9397
:100CB000CF93DF936C017A018B01C0E0D0E0CE15B9
:100CC000DF0589F0D8016D918D01D601ED91FC9180
:100CD0000190F081E02DC6010995892B11F47E0168
:100CE00002C02196ECCFC701DF91CF911F910F91E8
:100CF000FF90EF90DF90CF900895FC01918D828D51
:100D0000981761F0828DDF01A80FB11D5D968C915F
:100D1000928D9F5F9F73928F90E008958FEF9FEF6A
:100D20000895FC01918D828D981731F0828DE80F26
:100D3000F11D858D90E008958FEF9FEF0895FC01E0
:100D4000918D228D892F90E0805C9F4F821B9109AD
:100D50008F739927089589E796E00E949F0621E006
:100D6000892B09F420E0822F0895FC01848DDF0196
:100D7000A80FB11DA35ABF4F2C91848D90E001960E
:100D80008F739927848FA689B7892C93A089B189FD
:100D90008C9180648C93938D848D981306C0028807
:100DA000F389E02D80818F7D80830895EF92FF92FB
:100DB0000F931F93CF93DF93EC0181E0888F9B8D7E
:100DC0008C8D981305C0E889F989808185FD24C040
:100DD000F62E0B8D10E00F5F1F4F0F731127E02EC3
:100DE0008C8DE8120CC00FB607FCFACFE889F989A0
:100DF000808185FFF5CFCE010E94B506F1CF8B8DA6
:100E0000FE01E80FF11DE35AFF4FF0820B8FEA89D4
:100E1000FB898081806207C0EE89FF896083E88951
:100E2000F98980818064808381E090E0DF91CF91B7
:100E30001F910F91FF90EF900895CF93DF93EC01F6
:100E4000888D8823C9F0EA89FB89808185FD05C0EA
:100E5000A889B9898C9186FD0FC00FB607FCF5CF24
:100E6000808185FFF2CFA889B9898C9185FFEDCF6C
:100E7000CE010E94B506E7CFDF91CF91089580E0C3
:100E800090E0892B29F00E94AB0681110C940000A0
:100E900008952F923F924F925F926F927F928F921E
:100EA0009F92AF92BF92CF92DF92EF92FF920F93F9
:100EB0001F93CF93DF93CDB7DEB729970FB6F89482
:100EC000DEBF0FBECDBF898749835A836B837C8386
:100ED0000091770610917806ADE74A2E512C612CCF
:100EE000712C0115110509F46FC0D801ED91FC9129
:100EF0000084F185E02DC80109951C01F801A2814B
:100F0000B3811296C12CD12C7601812C912C5401E5
:100F100020E030E0A9010097A9F0FD01329760813F
:100F2000260F311D411D511D31966081860E911C89
:100F3000A11CB11C6C91C60ED11CE11CF11C0197C7
:100F40001396E9CFA0E5B0E00E9469176D837E8318
:100F50008F839887A7E3B0E0A50194010E946917E9
:100F60004B015C01ABE4B0E0A70196010E94691758
:100F7000472F582F692F7727F5E0F29D9001F39DB9
:100F8000300D11248D819E81AF81B885C92EDA2E56
:100F9000EB2EFF24C20ED31EE11CF11C4C0C5D1C79
:100FA0006E1C7F1C892C9A2CAB2CBB24480C591C22
:100FB0006A1C7B1C440E551E661E771ED8011496B3
:100FC0000D911C9115978DCFB985CB2ED12CE12C8D
:100FD000F12CA3019201C701B6010E94A517872E2B
:100FE000982EA92EBB2489819A81AB81BC81881659
:100FF0009906AA06BB0660F0A7019601BC01CD01C7
:101000000E94A517A50194010E947417822F01C0A8
:10101000898529960FB6F894DEBF0FBECDBFDF914C
:10102000CF911F910F91FF90EF90DF90CF90BF90E5
:10103000AF909F908F907F906F905F904F903F9078
:101040002F9008950E94E3171F920F920FB60F92F0
:1010500011242F933F934F935F936F937F938F93BD
:101060009F93AF93BF93EF93FF9389E796E00E941E
:10107000B506FF91EF91BF91AF919F918F917F91B5
:101080006F915F914F913F912F910F900FBE0F90F5
:101090001F9018951F920F920FB60F9211242F9345
:1010A0008F939F93EF93FF93E0918906F0918A06C7
:1010B0008081E0918F06F091900682FD12C09081B0
:1010C000809192068F5F8F7320919306821751F063
:1010D000E0919206F0E0E758F94F958F80939206E1
:1010E00001C08081FF91EF919F918F912F910F907F
:1010F0000FBE0F901F9018958EBD00000DB407FE17
:10110000FDCF8EB508958FEF0C947C0808958FEF76
:101110009FEF08958FEF9FEF08958091520290E026
:1011200091958195910908950F931F93CF93DF9324
:10113000EB010E94C1108B010E9483088F3F49F090
:101140000E94C110601B710B6C177D07A8F380E033
:1011500001C081E0DF91CF911F910F91089561E06F
:10116000FC0184810E943B108091530281111092F6
:1011700053020895CF93DF93EC018E81882389F089
:101180008F8198859C012F5F3F4F38872F83823056
:10119000924018F40E948308F3CFCE010E94AF085A
:1011A0001E82DF91CF910895CF92DF92FF920F932D
:1011B0001F93CF93DF9300D000D0CDB7DEB76C0183
:1011C000F62E29833A834B835C830E94BA08809170
:1011D000530229813A814B815C81811109C081E0F0
:1011E0008093530290912307809124079CBD8DBD6D
:1011F00060E0F601848129833A834B835C830E94FB
:101200003B106CE271E0C6010E9494088F2D80644F
:101210000E947C0808E110E05C814B813A812981C1
:10122000DA01C901002E04C0B695A7959795879558
:101230000A94D2F729833A834B835C830E947C080B
:101240000850110929813A814B815C81083FFFEFE9
:101250001F0731F7FF2029F088E0F81204C087E863
:1012600003C085E901C08FEF0E947C0810E00E9456
:101270008308F601828787FF04C01F3F11F01F5FBC
:10128000F6CF0F900F900F900F90DF91CF911F919D
:101290000F91FF90DF90CF900895EF92FF920F9300
:1012A0001F93CF93DF93EC0179014115510561053F
:1012B000710511F482E13CC08B85833039F089E0FF
:1012C000440F551F661F771F8A95D1F79A01AB010E
:1012D00068E1CE010E94D408882311F084E028C080
:1012E0008EEF0E947C0887018EEFF81AF801819139
:1012F0008F010E947C080E151F05C1F78FEF0E9419
:101300007C088FEF0E947C080E9483088A878F7177
:10131000853031F081E18D83CE010E94AF0809C094
:1013200068E572E0CE010E949408811107C085E152
:101330008D83CE010E94AF0880E013C020E030E032
:10134000A9016DE0CE010E94D408811104C00E9461
:101350008308882311F084E1EBCFCE010E94AF080F
:1013600081E0DF91CF911F910F91FF90EF90089551
:10137000CF93DF9380915602882399F1C091540254
:10138000D0915502409106015091070160910801EA
:10139000709109012BE532E0CE010E944D098111C7
:1013A00002C080E01FC040915702509158026091E6
:1013B000590270915A02411551056105710579F084
:1013C0002BE532E0CE010E944D09882351F31092A3
:1013D0005702109258021092590210925A0210921B
:1013E000560281E0DF91CF910895BF92CF92DF92B4
:1013F000EF92FF920F931F93CF93DF936B017C01CA
:10140000B42E8091060190910701A0910801B0913E
:1014100009018C159D05AE05BF0509F476C00E9433
:10142000B809882309F478C0C0915402D0915502BC
:101430008E81882369F088819981AA81BB81C81631
:10144000D906EA06FB0621F48F819885892BB1F134
:10145000C882D982EA82FB828B85A70196018330FC
:1014600039F089E0220F331F441F551F8A95D1F7A9
:1014700061E1CE010E94D408882319F083E08D83B6
:1014800037C00E94C1108B010E9483088A878F3F5A
:1014900049F40E94C110601B710B6D327140A0F3C2
:1014A0008FE003C08E3F31F08DE08D83CE010E942E
:1014B000AF081EC018861F8281E08E830BE512E004
:1014C0000E948308F80181938F01F4E00B351F0718
:1014D000B9F78F8198859E5F98878F83298522230E
:1014E00019F08115924048F0CE010E94BA0805C05B
:1014F000CE010E94AF0880E00FC0C0920601D092DA
:101500000701E0920801F092090180915602482FEC
:101510004B294093560281E0DF91CF911F910F91AB
:10152000FF90EF90DF90CF90BF9008954F925F9221
:101530006F927F928F929F92AF92BF92CF92DF92E3
:10154000EF92FF920F931F93CF93DF93EC016A0109
:101550007B0128013901423051056105710510F404
:1015600080E073C089859A85AB85BC850196A11DF5
:10157000B11D84179507A607B70790F38B889C8841
:10158000AD88BE888F89803129F4BB27AF2D9E2D71
:101590008D2D09C0DB01CA0147E0B695A795979547
:1015A00087954A95D1F7880E991EAA1EBB1E809179
:1015B000060190910701A0910801B09109018816D8
:1015C0009906AA06BB0679F48F898031A1F4DD243F
:1015D000EE24FF24C601880F991FFC01E55AFD4F38
:1015E0005182408219C040E0C501B4010E94F50952
:1015F0008111EACFB5CFE894C7F8DD24EE24FF24AB
:10160000C601880F991F880F991FFC01E55AFD4FED
:1016100040825182628273828091560281608093FF
:1016200056028A89823080F08D819E81AF81B88593
:10163000880E991EAA1EBB1E8092570290925802D5
:10164000A0925902B0925A0281E0DF91CF911F918E
:101650000F91FF90EF90DF90CF90BF90AF909F9051
:101660008F907F906F905F904F9008958F929F9290
:10167000AF92BF92CF92DF92EF92FF920F931F93A0
:10168000CF93DF93FC0181859285A385B485019674
:10169000A11DB11D84179507A607B70710F480E0B8
:1016A0005CC083899489A589B689C789C03129F42A
:1016B000852E962EA72EBB2409C04A015B01C7E0E8
:1016C000B694A79497948794CA95D1F7E9016A01D3
:1016D0007B018F01BC01CD01680D791D8A1D9B1D09
:1016E0008090060190900701A0900801B090090138
:1016F000681579058A059B0599F4F8018789803179
:10170000A9F4B701A601552766277727440F551F6F
:10171000FA01E55AFD4F80819181A0E0B0E018C048
:1017200040E00E94F5098111E8CFB9CFB701A601C9
:101730004F77552766277727440F551F440F551FAE
:10174000FA01E55AFD4F80819181A281B381BF707A
:1017500088839983AA83BB8381E0DF91CF911F9116
:101760000F91FF90EF90DF90CF90BF90AF909F9040
:101770008F9008953F924F925F926F927F928F92D7
:101780009F92AF92BF92CF92DF92EF92FF920F9310
:101790001F93CF93DF93CDB7DEB72C970FB6F89496
:1017A000DEBF0FBECDBF5C01DC015B968D909C90CF
:1017B0005C971696CD90DD90ED90FC901997C11432
:1017C000D104E104F10439F0BFEFCB1ADB0AEB0AD4
:1017D000FB0A312C07C0F401C080D180E280F38085
:1017E00033243394F40181859285A385B4859C01CB
:1017F000AD012F5F3F4F4F4F5F4F29873A874B8790
:101800005C87260137011D821E821F821886F40123
:1018100081859285A385B4852D813E814F81588530
:10182000281739074A075B0708F063C089859A853E
:10183000AB85BC858C159D05AE05BF0550F482E0D7
:10184000C82ED12CE12CF12C92E0492E512C612C88
:10185000712C9E012F5F3F4FB701A601C4010E946A
:10186000360B882309F445C089819A81AB81BC81FC
:10187000892B8A2B8B2B41F0260137019FEF491AC8
:10188000590A690A790A05C0C414D504E604F704A4
:1018900091F02D813E814F8158852F5F3F4F4F4FF3
:1018A0005F4F2D833E834F8358873FEFC31AD30A80
:1018B000E30AF30AACCF0FEF1FEF2FEF3FE0B301C6
:1018C000A201C4010E94960A882399F0D5011696B8
:1018D0004D915D916D917C9119974115510561056F
:1018E000710549F093018201C4010E94960A811199
:1018F00002C080E02AC0D50116964D925D926D928D
:101900007C921997332051F0D301C2010196A11D99
:10191000B11DF40180839183A283B383F50187898C
:10192000908DA18DB28D892B8A2B8B2B69F4D501DB
:1019300057964D925D926D927C925A9714968C9127
:101940001497806814968C9381E02C960FB6F894C7
:10195000DEBF0FBECDBFDF91CF911F910F91FF90E2
:10196000EF90DF90CF90BF90AF909F908F907F903F
:101970006F905F904F903F9008954F925F926F925B
:101980007F928F929F92AF92BF92EF92FF920F93AE
:101990001F93CF93DF9300D000D01F92CDB7DEB757
:1019A0008C016D83DC0115968C911597813009F0BF
:1019B00057C014968C9181FF53C05AC0038CF48D8C
:1019C000E02D258530E0275F3F4F2A013B01B1E044
:1019D0004B1A510861087108022E04C0769467946E
:1019E000579447940A94D2F7D501C4010197A109ED
:1019F000B10904C0B695A795979587952A95D2F712
:101A000084159505A605B70508F070C0F80147894B
:101A1000508D618D728D46835783608771872C014D
:101A20003D017801E6E0EE0EF11CD80141145104AD
:101A30006104710409F464C016964D915D916D9135
:101A40007C91199797015B968D919C915C970E9470
:101A5000360BB1E04B1A5108610871088111E5CFCE
:101A600081E090E0F8019383828380E090E04FC1B1
:101A700082FF0EC0F8014285538564857585838891
:101A80009488A588B688481559056A057B05F1F440
:101A9000D8011A964D915D916D917C911D975B9641
:101AA0008D919C915C97FC0174807A944A015B0152
:101AB00029E0B694A794979487942A95D1F7782033
:101AC0007A01F1E0FF22772011F164C081149104C2
:101AD000A104B10409F072CF168217821086118614
:101AE000F8011286138614861586D2CF452B462B15
:101AF000472B09F48BCF84199509A609B7098FCF15
:101B00001A968D929D92AD92BC921D97C1CFE11411
:101B1000F10409F03FC0F801468157816085718565
:101B2000411551056105710549F48789908DA18D95
:101B3000B28D0097A105B10541F521C09E012F5F2F
:101B40003F4F0E94360B882309F48FCF89819A81F9
:101B5000AB81BC81F801238D348DF90127892031B7
:101B600029F048EF5FEF6FEF7FE004C048EF5FEFD1
:101B700060E070E084179507A607B70730F0C8014A
:101B80000E94BA0B811106C06BCFF8018683978340
:101B9000A087B187D8015B96ED91FC915C97169672
:101BA0008D909D90AD90BC901997B2E08B1A9108E2
:101BB000A108B108058404C0880C991CAA1CBB1C90
:101BC0000A94D2F786859785A089B189880E991ED7
:101BD000AA1EBB1E870C911CA11CB11CE114F104B0
:101BE00009F5F80142855385648575858389948953
:101BF000A589B689481759076A077B0798F00E949C
:101C0000B809882309F42CCF80920601909207012D
:101C1000A0920801B09209018091560281608093E0
:101C2000560208C041E0C501B4010E94F5098823AD
:101C300009F416CFF701E55AFD4F8D818083F80135
:101C400082859385A485B5850196A11DB11D8287E6
:101C50009387A487B587438954896589768948170E
:101C600059076A077B0738F4838B948BA58BB68B57
:101C7000848180688483D80114968C9183FD03C08D
:101C800081E090E044C0F8019581992309F4E8CE01
:101C900087FF38C0668577858089918941E00E94F9
:101CA000F509882309F4DCCED8015296EC91B0E214
:101CB000EB9F90011124D901A55ABD4F109709F44B
:101CC000CFCEF8018581823050F4438954896589EB
:101CD00076895C964D935D936D937C935F97F80145
:101CE0008789908DA18DB28DF901E55AFD4F938FB3
:101CF000828FB58BA48BD80114968C9114978F7713
:101D000014968C930E94B8098111BACFA9CE0F9076
:101D10000F900F900F900F90DF91CF911F910F9127
:101D2000FF90EF90BF90AF909F908F907F906F90BB
:101D30005F904F900895CF93DF9300D0CDB7DEB77B
:101D4000CB01642F49835A830E9471054981842FF6
:101D50005A81952F0F900F90DF91CF910895DC015C
:101D6000FB014C9111965C91119712967C91342F46
:101D70003F71330F330F832F880F35E5282F239FB3
:101D8000020E20E0211D1124642F6074942F9072A4
:101D900047FD21C061110BC0911104C0822F8095B5
:101DA000422F11C045E5420F30E02BEA33C09111BC
:101DB0000DC0382F4AEA349F030E30E0311D112444
:101DC0008BEA831B420F282F30E024C080E0422F93
:101DD0004095322F0EC0611111C091110CC0382FE7
:101DE0002AEA329F030E30E0311D11244BEA431BD7
:101DF0003B5A20E00FC0322F30950BC0911104C028
:101E000085E5820F3BEA03C08AEA820F90E0321B2D
:101E1000282F40E05F3F11F15523E9F0222321F004
:101E2000259F020E20E0211D442321F0459F040E32
:101E300040E0411D332321F0359F030E30E0311D7A
:101E400011245095559F050E50E0511D1124250F6A
:101E5000450F350F03C03FEF4FEF2FEF7F3F09F4E2
:101E600020C050E0772321F0779F512D09F05F5F6C
:101E70005523A1F0222321F0259F020E20E0211DF1
:101E8000442321F0459F040E40E0411D332321F0FF
:101E9000359F030E30E0311D112403C030E040E0D7
:101EA00020E020834183328308953FB7F8948091E6
:101EB0002A0790912B07A0912C07B0912D0726B5EA
:101EC000A89B05C02F3F19F00196A11DB11D3FBF72
:101ED000BA2FA92F982F8827820F911DA11DB11D00
:101EE000BC01CD0142E0660F771F881F991F4A95FC
:101EF000D1F70895CF93DF93382FEBE5F4E0ADE50C
:101F0000B4E02081239F020E20E0211D2083ED01FB
:101F10002A91239F020E20E0211D28832C91239FCC
:101F2000020E20E0211D2C9311243396139686E097
:101F3000E737F80731F7DF91CF9108950F931F939B
:101F4000CF93DF93EC018B01E881F9810480F58167
:101F5000E02D09951B830A838CE390E09E878D8793
:101F6000E881F9810284F385E02DCE01099500977F
:101F700029F19C0140E050E060E472E48FE090E0E1
:101F80000E944A17722F632F0091190710911A07A8
:101F900020911B0730911C07872F962FDA0180179D
:101FA0009107A207B30710F4D901C801809319075C
:101FB00090931A07A0931B07B0931C07CE01DF91E3
:101FC000CF911F910F910895CF92DF92EF92FF92E0
:101FD0000F931F93CF93DF93CDB7DEB7A1970FB6C3
:101FE000F894DEBF0FBECDBF282F30E040E050E0B8
:101FF00019A28E010F5D1F4F8AE0C82ED12CE12C53
:10200000F12CCA01B901A70196010E947417605D05
:10201000F80162938F01211531054105510589F7BA
:10202000309771F001900020E9F73197AF01401B24
:10203000510BB80189E796E00E9452068C0102C05C
:1020400000E010E042E050E062E971E089E796E0EC
:102050000E945206800F911FA1960FB6F894DEBF22
:102060000FBECDBFDF91CF911F910F91FF90EF90E9
:10207000DF90CF90089590E0FC01E656FF4F349139
:10208000FC01EA57FF4F2491FC01EE58FF4FE49109
:10209000EE2309F43BC0332339F1333091F038F4A7
:1020A0003130A9F0323001F584B58F7D12C0373060
:1020B00091F03830A1F03430B9F4809180008F7DF8
:1020C00003C0809180008F77809380000DC084B51D
:1020D0008F7784BD09C08091B0008F7703C0809155
:1020E000B0008F7D8093B000F0E0EE0FFF1FE85945
:1020F000FF4FA591B4918FB7F894EC91611103C093
:1021000020952E2301C02E2B2C938FBF08958F92E4
:102110009F92AF92BF92CF92DF92EF92FF926B01AC
:102120007C010E94550F4B015C01C114D104E104F4
:10213000F104F1F00E94550FDC01CB0188199909D7
:10214000AA09BB09883E9340A105B10570F321E0BF
:10215000C21AD108E108F10888EE880E83E0981EC3
:10216000A11CB11CC114D104E104F10419F7DDCFA5
:10217000FF90EF90DF90CF90BF90AF909F908F90A7
:1021800008952FB7F89460912607709127078091E2
:102190002807909129072FBF08953F924F925F9291
:1021A0006F927F928F929F92AF92BF92CF92DF9267
:1021B000EF92FF920F931F93CF93DF9300D01F9264
:1021C000CDB7DEB7F09016078091190790911A07E6
:1021D000A0911B07B0911C07892B8A2B8B2BE9F050
:1021E0000E94550F00913407109135072091360752
:1021F00030913707DC01CB01801B910BA20BB30B95
:102200000091190710911A0720911B0730911C07A4
:1022100080179107A207B307B8F20E94550F609389
:102220003407709335078093360790933707E09112
:102230002107F0912207309759F040911D075091E6
:102240001E0760911F07709120078F2D0995F82EAA
:1022500000917706109178064F2C512C612C712C2F
:102260000115110509F461C0D8011C96EC901C976A
:1022700080911707909118078436910510F41C96E9
:102280001C92D801ED91FC91A280B38019821A8230
:102290001B82F11014C0F801458556856281738157
:1022A0009E012F5F3F4FC801F5010995D8011C968B
:1022B000EC921C9714960D911C911597D1CFF801B3
:1022C0003996CE0101966C0148019CE0890E911C63
:1022D000DF0113973C902191332001F12223F1F08B
:1022E000822F90E0A0E0B0E09C01AD012F5F3F4F56
:1022F0004F4F5F4FC301B2010E94A5179B01AC0174
:10230000832D90E0A0E0B0E0BC01CD016F5F7F4F76
:102310008F4F9F4F0E94A517D6018C93BFEFCB1A0A
:10232000DB0AE815F905A1F6B6CF80913207909146
:1023300033078C010F5F1F4F109333070093320751
:1023400049979CF10E94C1104B015C0188EE93E01B
:10235000089FB001099F700D189F700D1124072E62
:10236000000C880B990BC0902E07D0902F07E0909F
:102370003007F0903107A50194012C193D094E0951
:102380005F090E9474173093180720931707109263
:102390003307109232070E94C11060932E0770938A
:1023A0002F0780933007909331070F900F900F9075
:1023B000DF91CF911F910F91FF90EF90DF90CF9021
:1023C000BF90AF909F908F907F906F905F904F9055
:1023D0003F9008958F929F92AF92BF92CF92DF92DB
:1023E000EF92FF926B017C010E94C1104B015C01D6
:1023F00061E070E080E090E00E9487100E94CD10C4
:102400000E94C110DC01CB0188199909AA09BB09F6
:102410008C159D05AE05BF0558F3FF90EF90DF903A
:10242000CF90BF90AF909F908F9008951F920F9282
:102430000FB60F9211242F933F938F939F93AF93D7
:10244000BF938091260790912707A0912807B0910C
:1024500029073091250723E0230F2D3720F401961B
:10246000A11DB11D05C026E8230F0296A11DB11DB7
:10247000209325078093260790932707A09328078A
:10248000B093290780912A0790912B07A0912C07E0
:10249000B0912D070196A11DB11D80932A0790933D
:1024A0002B07A0932C07B0932D07BF91AF919F915D
:1024B0008F913F912F910F900FBE0F901F90189505
:1024C000CF93DF93CDB7DEB7A6970FB6F894DEBFF4
:1024D0000FBECDBF789484B5826084BD84B5816021
:1024E00084BD85B5826085BD85B5816085BD8091DF
:1024F0006E00816080936E00109281008091810057
:10250000826080938100809181008160809381004E
:10251000809180008160809380008091B100846010
:102520008093B1008091B00081608093B000809171
:102530007A00846080937A0080917A008260809330
:102540007A0080917A00816080937A0080917A008D
:10255000806880937A001092C10060ED77E080E09F
:1025600090E00E948710E0918906F0918A0682E04F
:102570008083E0918506F09186061082E0918706BF
:10258000F09188068FEC808310929106E0918D0681
:10259000F0918E0686E08083E0918B06F0918C06A8
:1025A000808180618083E0918B06F0918C06808130
:1025B00088608083E0918B06F0918C068081806832
:1025C0008083E0918B06F0918C0680818F7D8083E3
:1025D00082E38093160789E497E090932207809323
:1025E000210780E197E2A0E0B0E080931D0790937F
:1025F0001E07A0931F07B093200780911802811136
:1026000011C087E092E00E94AA0588E391E09093D0
:10261000080280930702109217021092160281E0BE
:10262000809318026BE574E087E092E00E949E0FB1
:1026300080913102811111C080E292E00E94AA05CE
:102640008AE491E09093210280932002109230025C
:1026500010922F0281E08093310263EC75E080E2FA
:1026600092E00E949E0F80914A02811111C089E37D
:1026700092E00E94AA058CE591E090933A02809343
:102680003902109249021092480281E080934A0276
:102690006FE075E089E392E00E949E0F80E00E9467
:1026A00031060E94E40F8FE30E9431060E94E40F7E
:1026B0008FE70E9431060E94E40F8EEB0E943106E4
:1026C0000E94E40F8FEF0E9431060E94E40F0E94E7
:1026D000C1106F8F78A389A39AA38BE5282E84E07D
:1026E000382E00E010E0412C512C3201C12CD12CAD
:1026F000812C912C5401C501B40123E130E040E06C
:1027000050E00E944A17DA01C9010A96A11DB11DC5
:10271000F82E87FDF094FF0CC301B20123E130E0F5
:1027200040E050E00E944A17BA01A901445C5F4FA3
:102730006F4F7F4F842F47FD8095909100019983C3
:10274000880F8A83FB82B601600F711F655A7B4F29
:10275000CE0101960E94AF0E2BEE820E911CA11CA1
:10276000B11C33E0C30ED11C47E8440E511C611C60
:10277000711C59E3C516D10409F0BDCF80E090E08B
:10278000F101E80FF91F11AE12AE13AE03968333B9
:102790009105B1F780910001909101014E969093BF
:1027A0000101809300016CE6260E311C04591F4F75
:1027B0000C3172E0170709F096CF0E94DB050E94EA
:1027C000CD1062E370E080E090E00E94EA110E9488
:1027D000C110DC01CB012F8D38A149A15AA1821B68
:1027E000930BA40BB50B81369A4EA105B10528F3C6
:1027F0000E9417060E94C1101B012C0115E0612EDA
:1028000018E0712E04E6F02E0FEF8BEF0E947A0F86
:102810008091020190910301869DA001879D500D3A
:10282000969D500D1124475E594C9A01A4EBB0E0DF
:102830000E9496174C01AA24BB24C0900401D0909A
:102840000501469DC001479D900D569D900D112498
:10285000875E994C9093030180930201A0E0B0E061
:10286000892F9A2FAB2FBB278C0D9D1D9695879591
:10287000969587958C8FFD8E1FEF0E8FBE016F5F33
:102880007F4FCE014C960E94AF0E3981F401EE0FBE
:10289000FF1FCF01880D991DFC01E55AFB4F2081D8
:1028A000230F08F42FEF20833A812181230F08F4AE
:1028B0002FEF21833B812281230F08F42FEF228306
:1028C0004FEFC41AD40AD0920501C09204010E94AD
:1028D000CD1065E070E080E090E00E94EA110E9477
:1028E000C110DC01CB0182199309A409B509813615
:1028F0009A4EA105B10508F488CF0E9417060E94E0
:10290000C1104B015C0119831A821B821C8389E967
:102910008D8383E38E831F831887198680E88A87D7
:102920001B871C861D861E871F8686E6888B8EE485
:10293000898B1A8B1B8A1C8A1D8B8FE78E8B1F8AB3
:10294000188F198F1A8E1B8F412C512C75E0672E12
:10295000712CC201B3010E94B5179B016C01CB0120
:10296000019669E070E00E94B517FC01EE0FFF1FB1
:10297000E80FF91F61E070E06C0F7D1FE60FF71F95
:1029800000814181E281C90169E070E00E94B517D0
:10299000DC01AA0FBB1FA80FB91F81E090E08C0FCC
:1029A0009D1FA80FB91F2C912F8F11961C91119765
:1029B0001296FC9130E0E12EF12C2F2E312CC90122
:1029C000801B910997FF03C0919581959109B301EF
:1029D0000E94B5177CA36BA3C701841B910997FFC5
:1029E00003C0919581959109B3010E94B5177EA30B
:1029F0006DA3C1018E1B910997FF03C0919581952D
:102A00009109B3010E94B517ABA1BCA1CA9EC00138
:102A1000CB9E900DDA9E900D1124BF8DB01718F447
:102A2000280F391F02C0281B390BADA1BEA1CA9EB9
:102A3000C001CB9E900DDA9E900D1124141718F44E
:102A40008E0D9F1D04C0A701481B590BCA01C69ECD
:102A5000A001C79E500DD69E500D1124FE1718F4EC
:102A6000420D531D04C0B101641B750BAB012093D3
:102A70005B0480935C0440935D040E94CD1062E38C
:102A800070E080E090E00E94EA110E94DB057FEF99
:102A9000471A570A84EB4816510409F05ACF0E948E
:102AA000DB050E94CD1062E370E080E090E00E94C0
:102AB000EA110E94C110DC01CB0188199909AA0909
:102AC000BB0981369A4EA105B10548F30E9417064D
:102AD0000E94C1102B013C0100E010E0812C912CE0
:102AE00054018A9446E0C42ED12C38E4830E3BE690
:102AF000931E31E0A31EB11CC801B6010E94B51798
:102B000003970CF441C110925B0410925C04109284
:102B10005D040E94CD1062E370E080E090E00E94CE
:102B2000EA110E94DB050F5F1F4F043B1105E9F618
:102B30000E94DB050E94CD1062E370E080E090E02F
:102B40000E94EA110E94C110DC01CB018419950991
:102B5000A609B70981369A4EA105B10548F30E942E
:102B600017060E94C1104B015C011FEFC12CD12C34
:102B700019831A82CB82CE0101960E94050668E273
:102B800070E080E090E00E94EA110E94CD105FEFBB
:102B9000C51AD50AC11461E0D60651F70E94C110CA
:102BA000DC01CB0188199909AA09BB0981369A4E23
:102BB000A105B10558F00E9417060E94C1104B01F3
:102BC0005C0100E010E0FF24FA94D3C0CC24CA9446
:102BD000D12CC9821A821B83CE0101960E94050660
:102BE00068E270E080E090E00E94EA110E94CD105F
:102BF00081E0C81AD10868F70E94C110DC01CB013E
:102C000088199909AA09BB0981369A4EA105B1050F
:102C100090F6C12CD12C1982CA821B83CE01019659
:102C20000E94050668E270E080E090E00E94EA11F0
:102C30000E94CD103FEFC31AD30AC11441E0D4065D
:102C400051F70E94C110DC01CB0188199909AA092A
:102C5000BB0981369A4EA105B10508F0ACCFCC2452
:102C6000CA94D12C19821A83CB82CE0101960E947C
:102C7000050668E270E080E090E00E94EA110E94A0
:102C8000CD1061E0C61AD10868F70E94C110DC01BE
:102C9000CB0188199909AA09BB0981369A4EA10569
:102CA000B10508F088CFC12CD12CC9821A831B82B0
:102CB000CE0101960E94050668E270E080E090E097
:102CC0000E94EA110E94CD103FEFC31AD30AC1142B
:102CD00041E0D40651F70E94C110DC01CB018819F4
:102CE0009909AA09BB0981369A4EA105B10508F0D8
:102CF00062CFCC24CA94D12C1983CA821B82CE0104
:102D000001960E94050668E270E080E090E00E9473
:102D1000EA110E94CD1061E0C61AD10868F70E943E
:102D2000C110DC01CB0188199909AA09BB098136B8
:102D30009A4EA105B10508F419CF3DCF10925B045E
:102D400010925C0410925D041092690510926A055D
:102D500010926B050E94CD1064E670E080E090E078
:102D60000E94EA110E94DB050F5F1F4F0A35110513
:102D700091F000FDE3CFF0925B04F0925C041092BE
:102D80005D04F0926905E2CFA0925B0490925C042E
:102D900080925D04BECE0E94DB050E94CD1064E6E9
:102DA00070E080E090E00E94EA110E94C110DC0116
:102DB000CB0188199909AA09BB0981369A4EA10548
:102DC000B10548F30E9417060E943F0780CCE9E74F
:102DD000F6E01382128288EE93E0A0E0B0E08483F4
:102DE0009583A683B7832EE631E03183208325ECDB
:102DF00030E03587248724EC30E03787268720ECC5
:102E000030E0318B208B21EC30E0338B228B22ECB5
:102E100030E0358B248B26EC30E0378B268B118EFF
:102E2000128E138E148EE6E1F7E02FEF20831282CC
:102E30001182148613864FEF5FEFBA0147835087E4
:102E400061877287E8E3F7E01582168211861386A0
:102E500042E050E060E070E04487558766877787FE
:102E600013A215A614A62EE731E033A722A717A6B2
:102E7000E3E2F7E020E520831182E1E8F7E0138246
:102E8000128284839583A683B78386E891E0918339
:102E900080830895052E97FB1EF400940E9461170D
:102EA00057FD07D00E94741707FC03D04EF40C9412
:102EB000611750954095309521953F4F4F4F5F4F8B
:102EC000089590958095709561957F4F8F4F9F4F96
:102ED00008950E949617A59F900DB49F900DA49FF2
:102EE000800D911D11240895A1E21A2EAA1BBB1B6F
:102EF000FD010DC0AA1FBB1FEE1FFF1FA217B307C6
:102F0000E407F50720F0A21BB30BE40BF50B661FDB
:102F1000771F881F991F1A9469F76095709580959F
:102F200090959B01AC01BD01CF010895A29FB00116
:102F3000B39FC001A39F700D811D1124911DB29FED
:102F4000700D811D1124911D0895DB018F939F93B6
:102F50000E946917BF91AF91A29F800D911DA39F01
:102F6000900DB29F900D1124089597FB072E16F433
:102F7000009407D077FD09D00E94C91707FC05D03F
:102F80003EF4909581959F4F0895709561957F4F80
:102F90000895AA1BBB1B51E107C0AA1FBB1FA617A0
:102FA000B70710F0A61BB70B881F991F5A95A9F7F2
:102FB00080959095BC01CD010895EE0FFF1F0590FF
:102FC000F491E02D099481E090E0F8940C94E817D6
:042FD000F894FFCFA3
:102FD4005A0039053200FFFFFFFF003131295A1B27
:102FE400750A000000002208220822081F041B049E
:102FF400180400000000D503910322081F041B04D9
:103004001804220800000000D503910348021F049D
:103014001B041804AB0100000000D5039103EA026D
:103024001F041B0418044D0200000000D503910383
:103034008C031F041B041804EF0200000000D606D2
:1030440052069F067D0691061D0700000000BD0C78
:1030540052060000000099059B0E8D088A08870817
:0630640086080D0A0000C1
:00000001FF
