:100000000C9458000C9480000C9480000C94800098
:100010000C9480000C9480000C9480000C94800060
:100020000C9480000C9480000C9480000C94800050
:100030000C9480000C9480000C9480000C94800040
:100040000C94AE100C9480000C941E110C94F810BB
:100050000C9480000C9480000C9480000C94800020
:100060000C9470040C94800000000000250028000F
:100070002B00040404040404040402020202020229
:10008000030303030303010204081020408001025C
:1000900004081020010204081020000000080002DB
:1000A00001000003040700000000000000005011E0
:1000B00011241FBECFEFD8E0DEBFCDBF11E0A0E01E
:1000C000B1E0E0E0F9E202C005900D92AE38B10770
:1000D000D9F727E0AEE8B1E001C01D92A33CB2071A
:1000E000E1F710E0C8E5D0E004C02197FE010E94CE
:1000F0006414C735D107C9F70E94B9110C947E1456
:100100000C94000085ED8093BC008091BC0084FDC0
:10011000FCCF1092D9010895EF92FF920F931F9395
:10012000CF93DF93EC01909190019F5F292F27706F
:100130002093900190FF02C090E801C090E021FD63
:100140009064247009F0906220E1290FFE013C9632
:100150007E018FE0E80EF11C00E011E06191662362
:1001600031F070E0C8010E94F0136F5F01C060E0E1
:10017000DF0114976C93322F369F030E30E0311D50
:100180001124CF010797311103C0EC01188203C07D
:100190003150EC013883662311F061506C93EE15F9
:1001A000FF05E1F6DF91CF911F910F91FF90EF9046
:1001B0000895DC018D919C91009739F0DC01ED915F
:1001C000FC910280F381E02D0994089587FF02C01D
:1001D0005C9A01C05C985D9A5D9886FF02C05C9A4B
:1001E00001C05C985D9A5D9885FF02C05C9A01C071
:1001F0005C985D9A5D9884FF02C05C9A01C05C982F
:100200005D9A5D9883FF02C05C9A01C05C985D9A1C
:100210005D9882FF02C05C9A01C05C985D9A5D980F
:1002200081FF02C05C9A01C05C985D9A5D9880FF76
:1002300002C05C9A01C05C985D9A5D980895DC01EB
:100240008D919C91009739F0DC01ED91FC91028039
:10025000F381E02D0994089587FF02C05A9A01C0E6
:100260005A985B9A5B9886FF02C05A9A01C05A98C6
:100270005B9A5B9885FF02C05A9A01C05A985B9AB4
:100280005B9884FF02C05A9A01C05A985B9A5B98A7
:1002900083FF02C05A9A01C05A985B9A5B9882FF0A
:1002A00002C05A9A01C05A985B9A5B9881FF02C0BB
:1002B0005A9A01C05A985B9A5B9880FF02C05A9A7A
:1002C00001C05A985B9A5B980895DC018D919C91CE
:1002D000009739F0DC01ED91FC910280F381E02D73
:1002E0000994089587FF02C05E9A01C05E985F9AE4
:1002F0005F9886FF02C05E9A01C05E985F9A5F9821
:1003000085FF02C05E9A01C05E985F9A5F9884FF85
:1003100002C05E9A01C05E985F9A5F9883FF02C038
:100320005E9A01C05E985F9A5F9882FF02C05E9AF3
:1003300001C05E985F9A5F9881FF02C05E9A01C01B
:100340005E985F9A5F9880FF02C05E9A01C05E98D7
:100350005F9A5F9808950F931F93CF93DF93EB01FC
:100360008C01015F1F4FDC011F968D919C9150976E
:10037000009739F0DC01ED91FC910190F081E02DC6
:10038000099580E00E94E60080E00E94E60080E09F
:100390000E94E60080E00E94E6008C819D81181694
:1003A00019060CF054C08FEF0E94E600E881F98135
:1003B0002281222321F03885230F08F42FEF3E8578
:1003C000239F020E20E0211D1124822F0E94E600AF
:1003D000E881F9812181222321F03F81230F08F454
:1003E0002FEF3D85239F020E20E0211D1124822F37
:1003F0000E94E600E881F9812081222321F03E81DC
:10040000230F08F42FEF3C85239F020E20E0211DCF
:100410001124822F0E94E60089859E81891B8E838C
:100420008A859F81891B8F838B859885891B888707
:100430002F8588819981820F911D27FD9A95998337
:1004400088838C819D8101979D838C83A6CF2A818F
:100450003B8137FF02C0215E3F4FE90185E0D59522
:10046000C7958A95E1F78FEF0E94E60080E00E9431
:10047000E60080E00E94E60080E00E94E60021970E
:1004800090F7C801DF91CF911F910F910C94D90083
:10049000549A559A0F960C94D9000F931F93CF93AB
:1004A000DF93EB018C01015F1F4FDC011F968D91E3
:1004B0009C915097009739F0DC01ED91FC910190EF
:1004C000F081E02D099580E00E942C0180E00E94DF
:1004D0002C0180E00E942C0180E00E942C018C8184
:1004E0009D81181619060CF054C08FEF0E942C0144
:1004F000E881F9812281222321F03885230F08F435
:100500002FEF3E85239F020E20E0211D1124822F14
:100510000E942C01E881F9812181222321F03F8171
:10052000230F08F42FEF3D85239F020E20E0211DAD
:100530001124822F0E942C01E881F981208122233D
:1005400021F03E81230F08F42FEF3C85239F020EFC
:1005500020E0211D1124822F0E942C0189859E817B
:10056000891B8E838A859F81891B8F838B859885C4
:10057000891B88872F8588819981820F911D27FD8E
:100580009A95998388838C819D8101979D838C8323
:10059000A6CF2A813B8137FF02C0215E3F4FE90190
:1005A00085E0D595C7958A95E1F78FEF0E942C01DC
:1005B00080E00E942C0180E00E942C0180E00E94DB
:1005C0002C01219790F7C801DF91CF911F910F91D6
:1005D0000C941F01529A539A0F960C941F010F937B
:1005E0001F93CF93DF93EB018C01015F1F4FDC0161
:1005F0001F968D919C915097009739F0DC01ED91F9
:10060000FC910190F081E02D099580E00E9472013B
:1006100080E00E94720180E00E94720180E00E94EE
:1006200072018C819D81181619060CF054C08FEF51
:100630000E947201E881F9812281222321F038850C
:10064000230F08F42FEF3E85239F020E20E0211D8B
:100650001124822F0E947201E881F98121812223D5
:1006600021F03F81230F08F42FEF3D85239F020ED9
:1006700020E0211D1124822F0E947201E881F9815E
:100680002081222321F03E81230F08F42FEF3C85A7
:10069000239F020E20E0211D1124822F0E9472014F
:1006A00089859E81891B8E838A859F81891B8F8383
:1006B0008B859885891B88872F8588819981820FF2
:1006C000911D27FD9A95998388838C819D8101973F
:1006D0009D838C83A6CF2A813B8137FF02C0215E98
:1006E0003F4FE90185E0D595C7958A95E1F78FEFF2
:1006F0000E94720180E00E94720180E00E947201FB
:1007000080E00E947201219790F7C801DF91CF919C
:100710001F910F910C946501569A579A0F960C945D
:1007200065010F931F93CF93DF93CDB7DEB7629729
:100730000FB6F894DEBF0FBECDBF8C01F901DC010E
:100740001C968C917A8369835C834B835E834D8393
:1007500090819D8791819E8792819F87813029F426
:10076000CE0101960E948C0006C01C861B861A864C
:10077000198618861F8283E0888B1A8A198AD80105
:10078000ED91FC910484F585E02DBE016F5F7F4FF4
:10079000C801099562960FB6F894DEBF0FBECDBFB3
:1007A000DF91CF911F910F9108950F931F93CF93D6
:1007B000DF93CDB7DEB762970FB6F894DEBF0FBEFA
:1007C000CDBF8C01F901DC011C968C917A83698381
:1007D0005C834B835E834D8390819D8791819E874F
:1007E00092819F87813029F4CE0101960E948C006E
:1007F00006C01C861B861A86198618861F82188AD0
:100800001A8A198AD801ED91FC910484F585E02DAE
:10081000BE016F5F7F4FC801099562960FB6F894CD
:10082000DEBF0FBECDBFDF91CF911F910F91089515
:10083000DC01FB01EE0FFF1F6C33710524F0CB01CF
:10084000CC97CC9718F46E0F7F1F07C0CB01885749
:1008500091096E0F7F1FCC9720F4FB01E85FFB4FDF
:1008600008C06C517240E0916406F0916506E60F95
:10087000F71F80818C93818111968C9311978281CF
:1008800012968C931297CD01089580E090E0089520
:10089000FC01858596850895CF93DF9300D000D025
:1008A00000D0CDB7DEB7AB011C821D821E82DC01F9
:1008B000ED91FC910190F081E02D19821A821B824A
:1008C0009E012F5F3F4FBE016C5F7F4F09952696BB
:1008D0000FB6F894DEBF0FBECDBFDF91CF91089564
:1008E0001F920F920FB60F9211242F933F934F93A5
:1008F0005F936F937F938F939F93AF93BF93EF9388
:10090000FF938091B900887F803609F49CC068F518
:10091000883209F45BC090F4803109F454C038F493
:10092000882309F4F6C0883009F44DC0F6C0883138
:1009300009F44CC0803209F45DC0EFC0803409F482
:1009400068C048F4803309F455C0883309F0E5C025
:100950008093D801D8C0803509F44FC0883509F498
:100960005DC0883409F0D9C0D6C0883909F4C7C041
:10097000A8F4883709F467C038F4883609F463C0EE
:10098000803709F460C0C9C0883809F4B8C080391C
:1009900009F45FC0803809F0C0C05BC0803B09F437
:1009A00086C038F4803A09F466C0883A09F47FC0FA
:1009B000B4C0803C09F4A7C0883C09F4A4C0883BBB
:1009C00009F48AC0AAC08091FE0110C09091FD0177
:1009D0008091FC01981770F5E091FD0181E08E0F88
:1009E0008093FD01F0E0E452FE4F80818093BB00D4
:1009F00085EC86C08093D8018EC0E091FD0181E036
:100A00008E0F8093FD018091BB00F0E0E452FE4F19
:100A100080839091FD018091FC016EC0E091FD0109
:100A200081E08E0F8093FD018091BB00F0E0E452E5
:100A3000FE4F80838091DB0181116DC081E0809346
:100A4000DA0184EA61C083E08093D9011092D70172
:100A5000CFCF8091D701803208F051C0E091D7010B
:100A600081E08E0F8093D7018091BB00F0E0E954C4
:100A7000FE4F8083BDCF85EC8093BC001092D901DE
:100A80008091D701803230F4E091D701F0E0E95451
:100A9000FE4F10826091D70170E0E091B501F091B6
:100AA000B60187EB91E009951092D70136C084E03A
:100AB0008093D9011092B4011092B301E091B10179
:100AC000F091B20109958091B301811105C081E0D7
:100AD0008093B30110929101E091B40181E08E0FF7
:100AE0008093B401F0E0EF56FE4F80818093BB000D
:100AF0009091B4018091B301981708F479CF85E8FB
:100B00008093BC000AC085EC8093BC001092D90190
:100B100004C01092D8010E948200FF91EF91BF9112
:100B2000AF919F918F917F916F915F914F913F9185
:100B30002F910F900FBE0F901F9018954091B30109
:100B4000262F30E0240F311D21323105DCF42091B5
:100B5000D9012430C9F4FC0180E090E0861758F4F4
:100B60003091B3012191DC01AF56BE4FA30FB11DEF
:100B70002C930196F3CF8091B301680F6093B3017A
:100B800080E0089581E0089582E00895FC0188E006
:100B900091E091838083138212828FEF8683878313
:100BA000808781878287838781E084871686158680
:100BB000158214828091600690916106892B21F440
:100BC000F0936106E0936006A0918E01B0918F01D1
:100BD000109721F01596FC93EE931497F0938F01E4
:100BE000E0938E0188E191E0918380830895DB0199
:100BF000FC01EE0FFF1F4C9111963C91119712963C
:100C00002C918C33910534F0BC016C5371096C3319
:100C1000710518F48E0F9F1F08C0BC016857710939
:100C20008E0F9F1F6C33710520F4FC01E85FFB4FB2
:100C300008C08C519240E0916406F0916506E80F7F
:100C4000F91F4083318322830895EF92FF920F931F
:100C50001F93CF93DF9300D01F92CDB7DEB703EB86
:100C600010E0C80101977C010115110561F463EBE7
:100C700070E0CE0101960E941804BE016F5F7F4FA5
:100C800080E090E009C0BC01CE0101960E941804EA
:100C9000BE016F5F7F4FC8010E94F7058701EF20FB
:100CA000E094F9F60F900F900F90DF91CF911F9184
:100CB0000F91FF90EF900895FC01918D828D981710
:100CC00061F0828DDF01A80FB11D5D968C91928D30
:100CD0009F5F9F73928F90E008958FEF9FEF08952D
:100CE000FC01918D828D981731F0828DE80FF11DF6
:100CF000858D90E008958FEF9FEF0895FC01918D11
:100D0000228D892F90E0805C9F4F821B91098F7309
:100D10009927089580E090E0892B29F00E94A20E87
:100D200081110C94000008958EBD00000DB407FEE3
:100D3000FDCF8EB508958FEF0C94940608958FEF34
:100D40009FEF08958FEF9FEF08958091FF0190E04E
:100D500091958195910908952F923F924F925F92BC
:100D60006F927F928F929F92AF92BF92CF92DF92BB
:100D7000EF92FF920F931F93CF93DF93CDB7DEB720
:100D800029970FB6F894DEBF0FBECDBF8987498380
:100D90005A836B837C830091600610916106ADE7F6
:100DA0004A2E512C612C712C0115110509F46FC0CC
:100DB000D801ED91FC910084F185E02DC8010995E1
:100DC0001C01F801A281B3811296C12CD12C7601AD
:100DD000812C912C540120E030E0A9010097A9F06A
:100DE000FD0132976081260F311D411D511D319645
:100DF0006081860E911CA11CB11C6C91C60ED11C89
:100E0000E11CF11C01971396E9CFA0E5B0E00E9428
:100E100045146D837E838F839887A7E3B0E0A50197
:100E200094010E9445144B015C01ABE4B0E0A701C2
:100E300096010E944514472F582F692F7727F5E018
:100E4000F29D9001F39D300D11248D819E81AF8123
:100E5000B885C92EDA2EEB2EFF24C20ED31EE11C5C
:100E6000F11C4C0C5D1C6E1C7F1C892C9A2CAB2C2D
:100E7000BB24480C591C6A1C7B1C440E551E661E64
:100E8000771ED80114960D911C9115978DCFB985B9
:100E9000CB2ED12CE12CF12CA3019201C701B6017C
:100EA0000E94E013872E982EA92EBB2489819A8157
:100EB000AB81BC8188169906AA06BB0660F0A70123
:100EC0009601BC01CD010E94E013A50194010E948E
:100ED0000414822F01C0898529960FB6F894DEBFCD
:100EE0000FBECDBFDF91CF911F910F91FF90EF907B
:100EF000DF90CF90BF90AF909F908F907F906F903A
:100F00005F904F903F902F90089561E0FC018481A5
:100F10000E94170F80910002811110920002089523
:100F2000CF93DF93EC018E81882389F08F819885A0
:100F30009C012F5F3F4F38872F838230924018F4F7
:100F40000E949B06F3CFCE010E9485071E82DF918F
:100F5000CF9108950F931F93CF93DF93EB010E94DE
:100F6000630F8B010E949B068F3F49F00E94630F25
:100F7000601B710B6C177D07A8F380E001C081E056
:100F8000DF91CF911F910F910895CF92DF92FF9241
:100F90000F931F93CF93DF9300D000D0CDB7DEB770
:100FA0006C01F62E29833A834B835C830E94900761
:100FB0008091000229813A814B815C81811109C0B5
:100FC00081E08093000290916206809163069CBD4F
:100FD0008DBD60E0F601848129833A834B835C8375
:100FE0000E94170F6CE271E0C6010E94AA078F2DC4
:100FF00080640E94940608E110E05C814B813A8194
:101000002981DA01C901002E04C0B695A7959795EC
:1010100087950A94D2F729833A834B835C830E9495
:1010200094060850110929813A814B815C81083F5F
:10103000FFEF1F0731F7FF2029F088E0F81204C006
:1010400087E803C085E901C08FEF0E94940610E095
:101050000E949B06F601828787FF04C01F3F11F0A4
:101060001F5FF6CF0F900F900F900F90DF91CF91F1
:101070001F910F91FF90DF90CF900895EF92FF9214
:101080000F931F93CF93DF93EC0179014115510525
:101090006105710511F482E13CC08B85833039F024
:1010A00089E0440F551F661F771F8A95D1F79A0173
:1010B000AB0168E1CE010E94C507882311F084E0EE
:1010C00028C08EEF0E94940687018EEFF81AF8016F
:1010D00081918F010E9494060E151F05C1F78FEFB5
:1010E0000E9494068FEF0E9494060E949B068A87B6
:1010F0008F71853031F081E18D83CE010E948507AB
:1011000009C068E572E0CE010E94AA07811107C0FC
:1011100085E18D83CE010E94850780E013C020E029
:1011200030E0A9016DE0CE010E94C507811104C025
:101130000E949B06882311F084E1EBCFCE010E9430
:10114000850781E0DF91CF911F910F91FF90EF9084
:101150000895CF93DF9380910302882399F1C09182
:101160000102D09102024091000150910101609171
:1011700002017091030128E032E0CE010E943E0896
:10118000811102C080E01FC040910402509105020D
:1011900060910602709107024115510561057105C4
:1011A00079F028E032E0CE010E943E08882351F316
:1011B0001092040210920502109206021092070289
:1011C0001092030281E0DF91CF910895BF92CF92F8
:1011D000DF92EF92FF920F931F93CF93DF936B01F8
:1011E0007C01B42E8091000190910101A091020137
:1011F000B09103018C159D05AE05BF0509F476C0BD
:101200000E94A908882309F478C0C0910102D091F6
:1012100002028E81882369F088819981AA81BB812D
:10122000C816D906EA06FB0621F48F819885892B1A
:10123000B1F1C882D982EA82FB828B85A70196012F
:10124000833039F089E0220F331F441F551F8A95E0
:10125000D1F761E1CE010E94C507882319F083E030
:101260008D8337C00E94630F8B010E949B068A8783
:101270008F3F49F40E94630F601B710B6D32714008
:10128000A0F38FE003C08E3F31F08DE08D83CE015F
:101290000E9485071EC018861F8281E08E8308E0A9
:1012A00012E00E949B06F80181938F01F4E0083060
:1012B0001F07B9F78F8198859E5F98878F8329854F
:1012C000222319F08115924048F0CE010E94900728
:1012D00005C0CE010E94850780E00FC0C0920001CA
:1012E000D0920101E0920201F09203018091030289
:1012F000482F4B294093030281E0DF91CF911F914A
:101300000F91FF90EF90DF90CF90BF9008954F9294
:101310005F926F927F928F929F92AF92BF92CF9285
:10132000DF92EF92FF920F931F93CF93DF93EC0125
:101330006A017B01280139014230510561057105BF
:1013400010F480E073C089859A85AB85BC850196D1
:10135000A11DB11D84179507A607B70790F38B88C9
:101360009C88AD88BE888F89803129F4BB27AF2D3A
:101370009E2D8D2D09C0DB01CA0147E0B695A795CA
:10138000979587954A95D1F7880E991EAA1EBB1E80
:101390008091000190910101A0910201B09103019F
:1013A00088169906AA06BB0679F48F898031A1F4C4
:1013B000DD24EE24FF24C601880F991FFC01E85F9D
:1013C000FD4F5182408219C040E0C501B4010E9426
:1013D000E6088111EACFB5CFE894C7F8DD24EE2402
:1013E000FF24C601880F991F880F991FFC01E85F31
:1013F000FD4F40825182628273828091030281603C
:10140000809303028A89823080F08D819E81AF8132
:10141000B885880E991EAA1EBB1E80920402909267
:101420000502A0920602B092070281E0DF91CF91FF
:101430001F910F91FF90EF90DF90CF90BF90AF90F2
:101440009F908F907F906F905F904F9008958F92B4
:101450009F92AF92BF92CF92DF92EF92FF920F9343
:101460001F93CF93DF93FC0181859285A385B4857B
:101470000196A11DB11D84179507A607B70710F4A3
:1014800080E05CC083899489A589B689C789C03109
:1014900029F4852E962EA72EBB2409C04A015B0194
:1014A000C7E0B694A79497948794CA95D1F7E901B9
:1014B0006A017B018F01BC01CD01680D791D8A1D78
:1014C0009B1D8090000190900101A0900201B090BE
:1014D0000301681579058A059B0599F4F801878948
:1014E0008031A9F4B701A601552766277727440F55
:1014F000551FFA01E85FFD4F80819181A0E0B0E0C7
:1015000018C040E00E94E6088111E8CFB9CFB701CA
:10151000A6014F77552766277727440F551F440F9D
:10152000551FFA01E85FFD4F80819181A281B3814F
:10153000BF7088839983AA83BB8381E0DF91CF91B9
:101540001F910F91FF90EF90DF90CF90BF90AF90E1
:101550009F908F9008953F924F925F926F927F92EB
:101560008F929F92AF92BF92CF92DF92EF92FF92B3
:101570000F931F93CF93DF93CDB7DEB72C970FB6A2
:10158000F894DEBF0FBECDBF5C01DC015B968D9091
:101590009C905C971696CD90DD90ED90FC901997FD
:1015A000C114D104E104F10439F0BFEFCB1ADB0A16
:1015B000EB0AFB0A312C07C0F401C080D180E28025
:1015C000F38033243394F40181859285A385B48517
:1015D0009C01AD012F5F3F4F4F4F5F4F29873A87E7
:1015E0004B875C87260137011D821E821F82188669
:1015F000F40181859285A385B4852D813E814F813B
:101600005885281739074A075B0708F063C08985A2
:101610009A85AB85BC858C159D05AE05BF0550F43C
:1016200082E0C82ED12CE12CF12C92E0492E512CD5
:10163000612C712C9E012F5F3F4FB701A601C401A1
:101640000E94270A882309F445C089819A81AB81C9
:10165000BC81892B8A2B8B2B41F0260137019FEF10
:10166000491A590A690A790A05C0C414D504E6045E
:10167000F70491F02D813E814F8158852F5F3F4FB8
:101680004F4F5F4F2D833E834F8358873FEFC31AE1
:10169000D30AE30AF30AACCF0FEF1FEF2FEF3FE0BF
:1016A000B301A201C4010E948709882399F0D501E2
:1016B00016964D915D916D917C911997411551054B
:1016C0006105710549F093018201C4010E948709F7
:1016D000811102C080E02AC0D50116964D925D921C
:1016E0006D927C921997332051F0D301C20101967B
:1016F000A11DB11DF40180839183A283B383F50101
:101700008789908DA18DB28D892B8A2B8B2B69F4C3
:10171000D50157964D925D926D927C925A97149690
:101720008C911497806814968C9381E02C960FB658
:10173000F894DEBF0FBECDBFDF91CF911F910F9107
:10174000FF90EF90DF90CF90BF90AF909F908F90E1
:101750007F906F905F904F903F9008954F925F926F
:101760006F927F928F929F92AF92BF92EF92FF9271
:101770000F931F93CF93DF9300D000D01F92CDB76C
:10178000DEB78C016D83DC0115968C911597813045
:1017900009F057C014968C9181FF53C05AC0038C36
:1017A000F48DE02D258530E0275F3F4F2A013B0176
:1017B000B1E04B1A510861087108022E04C07694FA
:1017C0006794579447940A94D2F7D501C4010197BE
:1017D000A109B10904C0B695A795979587952A9553
:1017E000D2F784159505A605B70508F070C0F80175
:1017F0004789508D618D728D4683578360877187CD
:101800002C013D017801E6E0EE0EF11CD8014114F7
:1018100051046104710409F464C016964D915D9100
:101820006D917C91199797015B968D919C915C9736
:101830000E94270AB1E04B1A510861087108811112
:10184000E5CF81E090E0F8019383828380E090E02F
:101850004FC182FF0EC0F8014285538564857585AE
:1018600083889488A588B688481559056A057B053C
:10187000F1F4D8011A964D915D916D917C911D976F
:101880005B968D919C915C97FC0174807A944A01DF
:101890005B0129E0B694A794979487942A95D1F791
:1018A00078207A01F1E0FF22772011F164C08114E1
:1018B0009104A104B10409F072CF16821782108638
:1018C0001186F8011286138614861586D2CF452B11
:1018D000462B472B09F48BCF84199509A609B70924
:1018E0008FCF1A968D929D92AD92BC921D97C1CFCB
:1018F000E114F10409F03FC0F80146815781608589
:101900007185411551056105710549F48789908DEF
:10191000A18DB28D0097A105B10541F521C09E01B1
:101920002F5F3F4F0E94270A882309F48FCF8981B8
:101930009A81AB81BC81F801238D348DF90127890F
:10194000203129F048EF5FEF6FEF7FE004C048EFF0
:101950005FEF60E070E084179507A607B70730F0E7
:10196000C8010E94AB0A811106C06BCFF8018683C3
:101970009783A087B187D8015B96ED91FC915C9726
:1019800016968D909D90AD90BC901997B2E08B1AF1
:101990009108A108B108058404C0880C991CAA1CF0
:1019A000BB1C0A94D2F786859785A089B189880ED9
:1019B000991EAA1EBB1E870C911CA11CB11CE11410
:1019C000F10409F5F801428553856485758583899D
:1019D0009489A589B689481759076A077B0798F043
:1019E0000E94A908882309F42CCF809200019092CC
:1019F0000101A0920201B092030180910302816073
:101A00008093030208C041E0C501B4010E94E608CA
:101A1000882309F416CFF701E85FFD4F8D8180839D
:101A2000F80182859385A485B5850196A11DB11D18
:101A300082879387A487B587438954896589768986
:101A4000481759076A077B0738F4838B948BA58B5B
:101A5000B68B848180688483D80114968C9183FD31
:101A600003C081E090E044C0F8019581992309F416
:101A7000E8CE87FF38C0668577858089918941E007
:101A80000E94E608882309F4DCCED8015296EC9136
:101A9000B0E2EB9F90011124D901A85FBD4F1097D0
:101AA00009F4CFCEF8018581823050F443895489FE
:101AB000658976895C964D935D936D937C935F9772
:101AC000F8018789908DA18DB28DF901E85FFD4FF6
:101AD000938F828FB58BA48BD80114968C91149719
:101AE0008F7714968C930E94A9088111BACFA9CE42
:101AF0000F900F900F900F900F90DF91CF911F914B
:101B00000F91FF90EF90BF90AF909F908F907F903C
:101B10006F905F904F900895CF93DF9300D0CDB733
:101B2000DEB7CB01642F49835A830E949E05498109
:101B3000842F5A81952F0F900F90DF91CF910895A8
:101B4000CF93DF931F92CDB7DEB7698361E0CE01FB
:101B500001960E949E0581E090E00F90DF91CF9169
:101B60000895FC01848DDF01A80FB11DA35ABF4F5A
:101B70002C91848D90E001968F739927848FA6898C
:101B8000B7892C93A089B1898C9180648C93938DB3
:101B9000848D981306C00288F389E02D80818F7DA3
:101BA000808308950F931F93CF93DF93EC018B01F4
:101BB000E881F9810480F581E02D09951B830A8372
:101BC0008CE390E09E878D87E881F9810284F3851C
:101BD000E02DCE010995009729F19C0140E050E0ED
:101BE00060E472E48FE090E00E942614722F632F6D
:101BF000009164071091650720916607309167078F
:101C0000872F962FDA0180179107A207B30710F4E8
:101C1000D901C8018093640790936507A093660774
:101C2000B0936707CE01DF91CF911F910F91089577
:101C30003FB7F8948091B6069091B706A091B80688
:101C4000B091B90626B5A89B05C02F3F19F00196A3
:101C5000A11DB11D3FBFBA2FA92F982F8827820F32
:101C6000911DA11DB11DBC01CD0142E0660F771F82
:101C7000881F991F4A95D1F708958F929F92AF922E
:101C8000BF92CF92DF92EF92FF926B017C010E9494
:101C9000180E4B015C01C114D104E104F104F1F010
:101CA0000E94180EDC01CB0188199909AA09BB0909
:101CB000883E9340A105B10570F321E0C21AD10816
:101CC000E108F10888EE880E83E0981EA11CB11C83
:101CD000C114D104E104F10419F7DDCFFF90EF90B6
:101CE000DF90CF90BF90AF909F908F900895CF924C
:101CF000DF92EF92FF920F931F93CF93DF936C01CC
:101D00007A018B01C0E0D0E0CE15DF0589F0D80163
:101D10006D918D01D601ED91FC910190F081E02D46
:101D2000C6010995892B11F47E0102C02196ECCFE2
:101D3000C701DF91CF911F910F91FF90EF90DF903E
:101D4000CF90089584EC96E00E947E0621E0892BD6
:101D500009F420E0822F08950E947914EF92FF92F7
:101D60000F931F93CF93DF93EC0181E0888F9B8DBE
:101D70008C8D981305C0E889F989808185FD24C080
:101D8000F62E0B8D10E00F5F1F4F0F731127E02E03
:101D90008C8DE8120CC00FB607FCFACFE889F989E0
:101DA000808185FFF5CFCE010E94B10DF1CF8B8DE3
:101DB000FE01E80FF11DE35AFF4FF0820B8FEA8915
:101DC000FB898081806207C0EE89FF896083E88992
:101DD000F98980818064808381E090E0DF91CF91F8
:101DE0001F910F91FF90EF900895CF93DF93EC0137
:101DF000888D8823C9F0EA89FB89808185FD05C02B
:101E0000A889B9898C9186FD0FC00FB607FCF5CF64
:101E1000808185FFF2CFA889B9898C9185FFEDCFAC
:101E2000CE010E94B10DE7CFDF91CF91089590E0F0
:101E3000FC01E656FF4F3491FC01EA57FF4F249115
:101E4000FC01EE58FF4FE491EE2309F43BC033232D
:101E500039F1333091F038F43130A9F0323001F5F6
:101E600084B58F7D12C0373091F03830A1F0343016
:101E7000B9F4809180008F7D03C0809180008F77BE
:101E8000809380000DC084B58F7784BD09C0809198
:101E9000B0008F7703C08091B0008F7D8093B00039
:101EA000F0E0EE0FFF1FE859FF4FA591B4918FB7F7
:101EB000F894EC91611103C020952E2301C02E2BC4
:101EC0002C938FBF08952FB7F8946091B20670914C
:101ED000B3068091B4069091B5062FBF08953F9246
:101EE0004F925F926F927F928F929F92AF92BF922A
:101EF000CF92DF92EF92FF920F931F93CF93DF93D6
:101F000000D01F92CDB7DEB7F82E80916407909174
:101F10006507A0916607B0916707892B8A2B8B2BE9
:101F2000E9F00E94180E0091C0061091C1062091A0
:101F3000C2063091C306DC01CB01801B910BA20BC2
:101F4000B30B0091640710916507209166073091EB
:101F5000670780179107A207B307B8F20E94180E0F
:101F60006093C0067093C1068093C2069093C30627
:101F7000E0916C07F0916D07309759F04091680738
:101F80005091690760916A0770916B078F2D0995D1
:101F9000F82E00916006109161064F2C512C612C97
:101FA000712C0115110509F461C0D8011C96EC9043
:101FB0001C9780916207909163078436910510F415
:101FC0001C961C92D801ED91FC91A280B3801982DD
:101FD0001A821B82F11014C0F80145855685628172
:101FE00073819E012F5F3F4FC801F5010995D8010C
:101FF0001C96EC921C9714960D911C911597D1CFBD
:10200000F8013996CE0101966C0148019CE0890ED9
:10201000911CDF0113973C902191332001F1222381
:10202000F1F0822F90E0A0E0B0E09C01AD012F5FC5
:102030003F4F4F4F5F4FC301B2010E94E0139B011E
:10204000AC01832D90E0A0E0B0E0BC01CD016F5F5A
:102050007F4F8F4F9F4F0E94E013D6018C93BFEFAD
:10206000CB1ADB0AE815F905A1F6B6CF8091BE06BA
:102070009091BF068C010F5F1F4F1093BF06009316
:10208000BE0649979CF10E94630F4B015C0188EEEC
:1020900093E0089FB001099F700D189F700D1124E7
:1020A000072E000C880B990BC090BA06D090BB0687
:1020B000E090BC06F090BD06A50194012C193D09E5
:1020C0004E095F090E94041430936307209362074E
:1020D0001092BF061092BE060E94630F6093BA066C
:1020E0007093BB068093BC069093BD060F900F9033
:1020F0000F90DF91CF911F910F91FF90EF90DF90A4
:10210000CF90BF90AF909F908F907F906F905F9097
:102110004F903F900895CF92DF92EF92FF920E94EE
:10212000630F6B017C0161E070E080E090E00E9451
:102130003D0E809161070E946F0F0E94630FDC01CA
:10214000CB018C199D09AE09BF09C297A105B10544
:1021500050F3FF90EF90DF90CF9008951F920F9271
:102160000FB60F9211242F933F938F939F93AF93AA
:10217000BF938091B2069091B306A091B406B0913E
:10218000B5063091B10623E0230F2D3720F40196D8
:10219000A11DB11D05C026E8230F0296A11DB11D8A
:1021A0002093B1068093B2069093B306A093B40631
:1021B000B093B5068091B6069091B706A091B80687
:1021C000B091B9060196A11DB11D8093B6069093FA
:1021D000B706A093B806B093B906BF91AF919F918F
:1021E0008F913F912F910F900FBE0F901F901895D8
:1021F0001F920F920FB60F9211242F933F934F937C
:102200005F936F937F938F939F93AF93BF93EF935E
:10221000FF9384EC96E00E94B10DFF91EF91BF9186
:10222000AF919F918F917F916F915F914F913F916E
:102230002F910F900FBE0F901F9018951F920F9225
:102240000FB60F9211242F938F939F93EF93FF93C9
:10225000E091D406F091D5068081E091DA06F09104
:10226000DB0682FD12C090818091DD068F5F8F7347
:102270002091DE06821751F0E091DD06F0E0EC538C
:10228000F94F958F8093DD0601C08081FF91EF911A
:102290009F918F912F910F900FBE0F901F901895C7
:1022A000E4ECF6E01382128288EE93E0A0E0B0E066
:1022B00084839583A683B78324E631E0318320832A
:1022C00025EC30E03587248724EC30E037872687FB
:1022D00020EC30E0318B208B21EC30E0338B228BF3
:1022E00022EC30E0358B248B26EC30E0378B268BCC
:1022F000118E128E138E148EE1E6F7E02FEF2083FD
:1023000012821182148613864FEF5FEFBA01478362
:10231000508761877287EEE6F7E015821682118694
:10232000138642E050E060E070E04487558766879E
:10233000778713A215A614A624E731E033A722A7B6
:1023400017A6E2E6F6E020E520831182E7EBF7E04E
:102350001382128284839583A683B7838CE791E0EE
:102360009183808384E296E090936506809364066F
:102370000895CF93DF93CDB7DEB7AA970FB6F89441
:10238000DEBF0FBECDBF789484B5826084BD84B5B6
:10239000816084BD85B5826085BD85B5816085BD60
:1023A00080916E00816080936E0010928100809118
:1023B00081008260809381008091810081608093A0
:1023C0008100809180008160809380008091B100C5
:1023D00084608093B1008091B00081608093B000F0
:1023E00080917A00846080937A0080917A00826084
:1023F00080937A0080917A00816080937A00809146
:102400007A00806880937A001092C10060ED77E0D6
:1024100080E090E00E943D0EE091D406F091D50658
:1024200082E08083E091D006F091D1061082E091A5
:10243000D206F091D3068FEC80831092DC06E091F7
:10244000D806F091D90686E08083E091D606F09117
:10245000D706808180618083E091D606F091D7060F
:10246000808188608083E091D606F091D7068081D4
:1024700080688083E091D606F091D70680818F7DB9
:10248000808382E3809361078CEA96E090936D07E6
:1024900080936C0780E197E2A0E0B0E0809368074A
:1024A00090936907A0936A07B0936B0780917706B2
:1024B000811111C086E696E00E94C6058AE291E08D
:1024C00090936706809366061092760610927506C2
:1024D00081E08093770668E074E086E696E00E94EB
:1024E000D20D80919006811111C08FE796E00E9475
:1024F000C6058CE391E09093800680937F0610924E
:102500008F0610928E0681E08093900660E775E05A
:102510008FE796E00E94D20D8091A906811111C02B
:1025200088E996E00E94C6058EE491E090939906B2
:10253000809398061092A8061092A70681E08093D7
:10254000A9066CEB74E088E996E00E94D20D65E084
:10255000862E912C0E94630F6B017C018FEF898383
:102560001A821B828C8399E99D8393E39E838F83D8
:102570008887198690E89A878B871C861D868E87A8
:102580001F8696E6988B9EE4998B8A8B1B8A1C8A01
:102590008D8B9FE79E8B1F8A888F898F1A8E8B8FDA
:1025A00000E010E0C801B4010E94F0139B01FC019F
:1025B000CB01019669E070E00E94F013DC01AA0FE4
:1025C000BB1F8A0F9B1FA1E0B0E0AC0FBD1FA80F7F
:1025D000B91F4C914DA311967C9011971296BC9007
:1025E000C90169E070E00E94F013DC01AA0FBB1F73
:1025F0008A0F9B1FA1E0B0E0AC0FBD1FA80FB91F51
:102600002C912EA311966C9011971296AC9030E0FD
:10261000262C312C4A2C512CC901841B910997FF7F
:1026200003C0919581959109B4010E94F01378A798
:102630006FA3C1018719910997FF03C091958195F7
:102640009109B4010E94F0137AA769A7C2018B19FE
:10265000910997FF03C0919581959109B4010E945A
:10266000F0138FA198A5E89FA001E99F500DF89F56
:10267000500D11249EA18DA1981718F4420F531FDD
:1026800004C0C901841B950BAC0189A59AA5E89FDC
:102690009001E99F300DF89F300D1124671418F454
:1026A000220D331D04C0C101821B930B9C01E69FC8
:1026B000C001E79F900DF69F900D1124AB1418F404
:1026C000840D951D04C0F201E81BF90BCF014AA34C
:1026D0002BA38CA3BE016E5D7F4F80E090E00E9433
:1026E000F705809161070E946F0F0E948B100E9476
:1026F00025060F5F1F4F043B110509F053CF412CF6
:10270000512C320143940E942506809161070E945A
:102710006F0F0E948B10D301C2010197A109B1096B
:102720008C159D05AE05BF0539F0D301C2018C198A
:102730009D09AE09BF0906C0D701C60184199509D4
:10274000A609B709F2E04F0E511C611C711C8132C1
:102750009E44A105B105B8F220916207309163074C
:1027600040E050E019A28E010F5D1F4FCA01B90170
:102770002AE030E040E050E00E940414605DF8017F
:1027800062938F01211531054105510579F7309785
:1027900061F001900020E9F73197AF01401B510B28
:1027A000B80184EC96E00E94770E42E050E06AE8BF
:1027B00071E084EC96E00E94770E0E948A06CACEF1
:1027C000DB018F939F930E944514BF91AF91A29F0D
:1027D000800D911DA39F900DB29F900D112408951F
:1027E00097FB072E16F4009407D077FD09D00E94BE
:1027F000501407FC05D03EF4909581959F4F0895A5
:10280000709561957F4F0895A1E21A2EAA1BBB1BFC
:10281000FD010DC0AA1FBB1FEE1FFF1FA217B307AC
:10282000E407F50720F0A21BB30BE40BF50B661FC2
:10283000771F881F991F1A9469F760957095809586
:1028400090959B01AC01BD01CF010895052E97FB2A
:102850001EF400940E943D1457FD07D00E940414FA
:1028600007FC03D04EF40C943D14509540953095E0
:1028700021953F4F4F4F5F4F0895909580957095EC
:1028800061957F4F8F4F9F4F08950E946A14A59FB7
:10289000900DB49F900DA49F800D911D112408955B
:1028A000AA1BBB1B51E107C0AA1FBB1FA617B70776
:1028B00010F0A61BB70B881F991F5A95A9F7809592
:1028C0009095BC01CD010895EE0FFF1F0590F49186
:1028D000E02D0994A29FB001B39FC001A39F700D8A
:1028E000811D1124911DB29F700D811D1124911D18
:1028F000089581E090E0F8940C947E14F894FFCF52
:10290000FFFFFFFF00000000AC0EAC0EAC0E4C044D
:102910004804450400000000D5039103AC0E4C04AC
:1029200048044504AC0E00000000D50391034802A2
:102930004C0448044504AB0100000000D50391039A
:10294000EA024C04480445044D0200000000D5038F
:1029500091038C034C0448044504EF02BC04700549
:1029600000000000AE0E770E7E065C067006F50EC7
:1029700000000000AE0B770E00000000A00D8C0DD3
:0E298000A506A2069F069E0608040D0A00008A
:00000001FF
