:100000000C9458000C9480000C9480000C94800098
:100010000C9480000C9480000C9480000C94800060
:100020000C9480000C9480000C9480000C94800050
:100030000C9480000C9480000C9480000C94800040
:100040000C94D6120C9480000C943C0C0C94160C5E
:100050000C9480000C9480000C9480000C94800020
:100060000C9416090C948000000000002500280064
:100070002B00040404040404040402020202020229
:10008000030303030303010204081020408001025C
:1000900004081020010204081020000000080002DB
:1000A0000100000304070000000000000000051824
:1000B00011241FBECFEFD8E0DEBFCDBF11E0A0E01E
:1000C000B1E0E2EDF7E302C005900D92AA3AB10764
:1000D000D9F728E0AAEAB1E001C01D92A733B20720
:1000E000E1F710E0C8E5D0E004C02197FE010E94CE
:1000F000FB18C735D107C9F70E9420130C94E71BE2
:100100000C94000087FF02C05E9A01C05E985F9A5F
:100110005F9886FF02C05E9A01C05E985F9A5F9802
:1001200085FF02C05E9A01C05E985F9A5F9884FF67
:1001300002C05E9A01C05E985F9A5F9883FF02C01A
:100140005E9A01C05E985F9A5F9882FF02C05E9AD5
:1001500001C05E985F9A5F9881FF02C05E9A01C0FD
:100160005E985F9A5F9880FF02C05E9A01C05E98B9
:100170005F9A5F980895DC018D919C91009739F00A
:10018000DC01ED91FC910280F381E02D099408954A
:1001900087FF02C0289A01C02898299A299886FFCB
:1001A00002C0289A01C02898299A299885FF02C080
:1001B000289A01C02898299A299884FF02C0289A71
:1001C00001C02898299A299883FF02C0289A01C063
:1001D0002898299A299882FF02C0289A01C0289855
:1001E000299A299881FF02C0289A01C02898299A43
:1001F000299880FF02C0289A01C02898299A299836
:1002000008950F931F93CF93DF93EB018C01015F50
:100210001F4FDC011F968D919C915097009739F0EC
:10022000DC01ED91FC910190F081E02D099580E0D9
:100230000E94C80080E00E94C80080E00E94C800C0
:1002400080E00E94C8008C819D81181619060CF070
:1002500054C08FEF0E94C800E881F98122812223D7
:1002600021F03885230F08F42FEF3E85239F020EDF
:1002700020E0211D1124822F0E94C800E881F9810D
:100280002181222321F03F81230F08F42FEF3D85A8
:10029000239F020E20E0211D1124822F0E94C800FE
:1002A000E881F9812081222321F03E81230F08F487
:1002B0002FEF3C85239F020E20E0211D1124822F69
:1002C0000E94C80089859E81891B8E838A859F81B3
:1002D000891B8F838B859885891B88872F858881CB
:1002E0009981820F911D27FD9A95998388838C812E
:1002F0009D8101979D838C83A6CF2A813B8137FF07
:1003000002C0215E3F4FE90185E0D595C7958A95EA
:10031000E1F78FEF0E94C80080E00E94C80080E0F3
:100320000E94C80080E00E94C800219790F7C80191
:10033000DF91CF911F910F910C94BB00209A219ACD
:100340000F960C94BB0080E090E00895FC01858539
:1003500096850895CF93DF9300D000D000D0CDB71D
:10036000DEB7AB011C821D821E82DC01ED91FC9187
:100370000190F081E02D19821A821B829E012F5F6D
:100380003F4FBE016C5F7F4F099526960FB6F894DC
:10039000DEBF0FBECDBFDF91CF910895529A539A21
:1003A0000F960C94950F0F931F93CF93DF93EB0150
:1003B0008C01015F1F4FDC011F968D919C9150971E
:1003C000009739F0DC01ED91FC910190F081E02D76
:1003D000099580E00E94A20F80E00E94A20F80E0B9
:1003E0000E94A20F80E00E94A20F8C819D811816AE
:1003F00019060CF054C08FEF0E94A20FE881F9811A
:100400002281222321F03885230F08F42FEF3E8527
:10041000239F020E20E0211D1124822F0E94A20F93
:10042000E881F9812181222321F03F81230F08F403
:100430002FEF3D85239F020E20E0211D1124822FE6
:100440000E94A20FE881F9812081222321F03E81C0
:10045000230F08F42FEF3C85239F020E20E0211D7F
:100460001124822F0E94A20F89859E81891B8E8371
:100470008A859F81891B8F838B859885891B8887B7
:100480002F8588819981820F911D27FD9A959983E7
:1004900088838C819D8101979D838C83A6CF2A813F
:1004A0003B8137FF02C0215E3F4FE90185E0D595D2
:1004B000C7958A95E1F78FEF0E94A20F80E00E9416
:1004C000A20F80E00E94A20F80E00E94A20F21975D
:1004D00090F7C801DF91CF911F910F910C94950F68
:1004E000549A559A0F960C94DB0F0F931F93CF934A
:1004F000DF93EB018C01015F1F4FDC011F968D9193
:100500009C915097009739F0DC01ED91FC9101909E
:10051000F081E02D099580E00E94E80F80E00E94C4
:10052000E80F80E00E94E80F80E00E94E80F8C81D5
:100530009D81181619060CF054C08FEF0E94E80F29
:10054000E881F9812281222321F03885230F08F4E4
:100550002FEF3E85239F020E20E0211D1124822FC4
:100560000E94E80FE881F9812181222321F03F8157
:10057000230F08F42FEF3D85239F020E20E0211D5D
:100580001124822F0E94E80FE881F9812081222323
:1005900021F03E81230F08F42FEF3C85239F020EAC
:1005A00020E0211D1124822F0E94E80F89859E8161
:1005B000891B8E838A859F81891B8F838B85988574
:1005C000891B88872F8588819981820F911D27FD3E
:1005D0009A95998388838C819D8101979D838C83D3
:1005E000A6CF2A813B8137FF02C0215E3F4FE90140
:1005F00085E0D595C7958A95E1F78FEF0E94E80FC2
:1006000080E00E94E80F80E00E94E80F80E00E94F6
:10061000E80F219790F7C801DF91CF911F910F91BB
:100620000C94DB0F0F931F93CF93DF93EB018C019F
:10063000015F1F4FDC011F968D919C915097009791
:1006400039F0DC01ED91FC910190F081E02D0995EC
:1006500080E00E94820080E00E94820080E00E9490
:10066000820080E00E9482008C819D81181619060C
:100670000CF054C08FEF0E948200E881F981228142
:10068000222321F03885230F08F42FEF3E85239F86
:10069000020E20E0211D1124822F0E948200E88199
:1006A000F9812181222321F03F81230F08F42FEFCC
:1006B0003D85239F020E20E0211D1124822F0E94E0
:1006C0008200E881F9812081222321F03E81230FDD
:1006D00008F42FEF3C85239F020E20E0211D1124FA
:1006E000822F0E94820089859E81891B8E838A8544
:1006F0009F81891B8F838B859885891B88872F8590
:1007000088819981820F911D27FD9A95998388830D
:100710008C819D8101979D838C83A6CF2A813B810B
:1007200037FF02C0215E3F4FE90185E0D595C795AF
:100730008A95E1F78FEF0E94820080E00E9482009C
:1007400080E00E94820080E00E948200219790F762
:10075000C801DF91CF911F910F910C942110569AEF
:10076000579A0F960C9421100F931F93CF93DF93FA
:10077000CDB7DEB762970FB6F894DEBF0FBECDBF20
:100780008C01F901DC011C968C917A8369835C836E
:100790004B835E834D8390819D8791819E8792815B
:1007A0009F87813029F4CE0101960E94480F06C030
:1007B0001C861B861A86198618861F82188A1A8A32
:1007C000198AD801ED91FC910484F585E02DBE01D4
:1007D0006F5F7F4FC801099562960FB6F894DEBF30
:1007E0000FBECDBFDF91CF911F910F9108950F9351
:1007F0001F93CF93DF93CDB7DEB762970FB6F89410
:10080000DEBF0FBECDBF8C01F901DC011C968C91BF
:100810007A8369835C834B835E834D8390819D875C
:1008200091819E8792819F87813029F4CE01019624
:100830000E94480F06C01C861B861A8619861886D9
:100840001F8283E0888B1A8A198AD801ED91FC9166
:100850000484F585E02DBE016F5F7F4FC8010995C7
:1008600062960FB6F894DEBF0FBECDBFDF91CF9179
:100870001F910F910895FC018EE091E09183808398
:10088000138212828FEF8683878380878187828796
:10089000838781E08487168615861582148280916D
:1008A000210790912207892B21F4F0932207E093EE
:1008B0002107A091AA01B091AB01109721F01596E4
:1008C000FC93EE931497F093AB01E093AA018EE1B1
:1008D00091E09183808308950F931F93CF93DF93CB
:1008E0000091240310912503C0911C02D0911D0298
:1008F000E2E2F3E084E890E0009759F4D8012C910B
:10090000288311962C911197298312962C912A8372
:1009100014C04081518122813381DA016C91D90167
:100920006C93DA0111966C91D90111966C93DA01EE
:1009300012964C91D90112964C93019732978F3FA2
:10094000BFEF9B07C9F6DF91CF911F910F910895DB
:10095000FC0140813181228180E090E0FC01EE5673
:10096000FA4F40833183228303968F3851E09507F5
:10097000A9F70895CF93DF93C4EFD1E08EEF0E94E3
:1009800053100E948D112197C9F7FE01EE56FA4FC0
:100990001082118212822396CF3881E0D807A9F7FE
:1009A000DF91CF910C948D118EBD00000DB407FE28
:1009B000FDCF8EB5089508958FEF9FEF08958FEFC7
:1009C0009FEF089580911A0290E091958195910989
:1009D00008953F924F925F926F927F928F929F9273
:1009E000AF92BF92CF92DF92EF92FF920F931F933D
:1009F000CF93DF93CDB7DEB72C970FB6F894DEBF59
:100A00000FBECDBF5C01DC015B968D909C905C9726
:100A10001696CD90DD90ED90FC901997C114D104FD
:100A2000E104F10439F0BFEFCB1ADB0AEB0AFB0A51
:100A3000312C07C0F401C080D180E280F3803324E0
:100A40003394F40181859285A385B4859C01AD0121
:100A50002F5F3F4F4F4F5F4F29873A874B875C8708
:100A6000260137011D821E821F821886F4018185AE
:100A70009285A385B4852D813E814F8158852817A5
:100A800039074A075B0708F063C089859A85AB85FB
:100A9000BC858C159D05AE05BF0550F482E0C82EBF
:100AA000D12CE12CF12C92E0492E512C612C712C8F
:100AB0009E012F5F3F4FB701A601C4010E94920E15
:100AC000882309F445C089819A81AB81BC81892B37
:100AD0008A2B8B2B41F0260137019FEF491A590AC7
:100AE000690A790A05C0C414D504E604F70491F034
:100AF0002D813E814F8158852F5F3F4F4F4F5F4F74
:100B00002D833E834F8358873FEFC31AD30AE30AEE
:100B1000F30AACCF0FEF1FEF2FEF3FE0B301A201BD
:100B2000C4010E94F20D882399F0D50116964D91CB
:100B30005D916D917C911997411551056105710584
:100B400049F093018201C4010E94F20D811102C09B
:100B500080E02AC0D50116964D925D926D927C92EE
:100B60001997332051F0D301C2010196A11DB11D87
:100B7000F40180839183A283B383F5018789908DEB
:100B8000A18DB28D892B8A2B8B2B69F4D5015796B9
:100B90004D925D926D927C925A9714968C91149717
:100BA000806814968C9381E02C960FB6F894DEBF83
:100BB0000FBECDBFDF91CF911F910F91FF90EF90AE
:100BC000DF90CF90BF90AF909F908F907F906F906D
:100BD0005F904F903F900895CF93DF9300D0CDB7B3
:100BE000DEB7CB01642F49835A830E94200F4981CD
:100BF000842F5A81952F0F900F90DF91CF910895F8
:100C0000CF93DF931F92CDB7DEB7698361E0CE014A
:100C100001960E94200F81E090E00F90DF91CF912C
:100C2000089561E0FC0184810E94FB1080911B0209
:100C3000811110921B0208958FEF0C94D4040F932E
:100C40001F93CF93DF93EB010E9481118B010E94D0
:100C50001C068F3F49F00E948111601B710B6C17BD
:100C60007D07A8F380E001C081E0DF91CF911F9163
:100C70000F910895CF93DF93EC018E81882389F043
:100C80008F8198859C012F5F3F4F38872F8382305B
:100C9000924018F40E941C06F3CFCE010E94110668
:100CA0001E82DF91CF910895CF92DF92FF920F9332
:100CB0001F93CF93DF9300D000D0CDB7DEB76C0188
:100CC000F62E29833A834B835C830E943A068091F7
:100CD0001B0229813A814B815C81811109C081E02D
:100CE00080931B029091CD078091CE079CBD8DBD56
:100CF00060E0F601848129833A834B835C830E9400
:100D0000FB106CE271E0C6010E941F068F2D80640B
:100D10000E94D40408E110E05C814B813A81298172
:100D2000DA01C901002E04C0B695A795979587955D
:100D30000A94D2F729833A834B835C830E94D404BC
:100D40000850110929813A814B815C81083FFFEFEE
:100D50001F0731F7FF2029F088E0F81204C087E868
:100D600003C085E901C08FEF0E94D40410E00E9407
:100D70001C06F601828787FF04C01F3F11F01F5F2A
:100D8000F6CF0F900F900F900F90DF91CF911F91A2
:100D90000F91FF90DF90CF900895EF92FF920F9305
:100DA0001F93CF93DF93EC01790141155105610544
:100DB000710511F482E13CC08B85833039F089E004
:100DC000440F551F661F771F8A95D1F79A01AB0113
:100DD00068E1CE010E945406882311F084E028C007
:100DE0008EEF0E94D40487018EEFF81AF8018191EA
:100DF0008F010E94D4040E151F05C1F78FEF0E94CA
:100E0000D4048FEF0E94D4040E941C068A878F713D
:100E1000853031F081E18D83CE010E94110609C039
:100E200068E572E0CE010E941F06811107C085E1CE
:100E30008D83CE010E94110680E013C020E030E0D7
:100E4000A9016DE0CE010E945406811104C00E94E8
:100E50001C06882311F084E1EBCFCE010E9411061D
:100E600081E0DF91CF911F910F91FF90EF90089556
:100E70004F925F926F927F928F929F92AF92BF92AA
:100E8000EF92FF920F931F93CF93DF9300D000D088
:100E90001F92CDB7DEB78C016D83DC0115968C9166
:100EA0001597813009F057C014968C9181FF53C07B
:100EB0005AC0038CF48DE02D258530E0275F3F4F2D
:100EC0002A013B01B1E04B1A510861087108022E5A
:100ED00004C076946794579447940A94D2F7D50146
:100EE000C4010197A109B10904C0B695A7959795CA
:100EF00087952A95D2F784159505A605B70508F0BC
:100F000070C0F8014789508D618D728D468357837B
:100F1000608771872C013D017801E6E0EE0EF11C3F
:100F2000D801411451046104710409F464C0169697
:100F30004D915D916D917C91199797015B968D9183
:100F40009C915C970E94920EB1E04B1A5108610887
:100F500071088111E5CF81E090E0F80193838283ED
:100F600080E090E04FC182FF0EC0F80142855385BA
:100F70006485758583889488A588B6884815590541
:100F80006A057B05F1F4D8011A964D915D916D913A
:100F90007C911D975B968D919C915C97FC01748070
:100FA0007A944A015B0129E0B694A79497948794B8
:100FB0002A95D1F778207A01F1E0FF22772011F10C
:100FC00064C081149104A104B10409F072CF1682A7
:100FD000178210861186F8011286138614861586EC
:100FE000D2CF452B462B472B09F48BCF841995097B
:100FF000A609B7098FCF1A968D929D92AD92BC9299
:101000001D97C1CFE114F10409F03FC0F8014681FA
:10101000578160857185411551056105710549F458
:101020008789908DA18DB28D0097A105B10541F5FD
:1010300021C09E012F5F3F4F0E94920E882309F42A
:101040008FCF89819A81AB81BC81F801238D348D4A
:10105000F9012789203129F048EF5FEF6FEF7FE03A
:1010600004C048EF5FEF60E070E084179507A607C3
:10107000B70730F0C8010E94E904811106C06BCFA8
:10108000F80186839783A087B187D8015B96ED919D
:10109000FC915C9716968D909D90AD90BC901997A1
:1010A000B2E08B1A9108A108B108058404C0880C2D
:1010B000991CAA1CBB1C0A94D2F786859785A08927
:1010C000B189880E991EAA1EBB1E870C911CA11CFB
:1010D000B11CE114F10409F5F801428553856485DA
:1010E000758583899489A589B689481759076A0740
:1010F0007B0798F00E94140D882309F42CCF80926E
:10110000060190920701A0920801B0920901809116
:101110008C03816080938C0308C041E0C501B40159
:101120000E94510D882309F416CFF701E357FC4FB5
:101130008D818083F80182859385A485B58501968C
:10114000A11DB11D82879387A487B58743895489E0
:1011500065897689481759076A077B0738F4838BB6
:10116000948BA58BB68B848180688483D801149678
:101170008C9183FD03C081E090E044C0F80195812B
:10118000992309F4E8CE87FF38C066857785808982
:10119000918941E00E94510D882309F4DCCED801E9
:1011A0005296EC91B0E2EB9F90011124D901A35724
:1011B000BC4F109709F4CFCEF8018581823050F4EE
:1011C00043895489658976895C964D935D936D93C7
:1011D0007C935F97F8018789908DA18DB28DF9017D
:1011E000E357FC4F938F828FB58BA48BD801149655
:1011F0008C9114978F7714968C930E94140D811103
:10120000BACFA9CE0F900F900F900F900F90DF9153
:10121000CF911F910F91FF90EF90BF90AF909F9053
:101220008F907F906F905F904F9008951F920F92D4
:101230000FB60F9211242F933F934F935F936F93A9
:101240007F938F939F93AF93BF93EF93FF9380917F
:10125000B900887F803609F49CC068F5883209F4AB
:101260005BC090F4803109F454C038F4882309F449
:10127000F6C0883009F44DC0F6C0883109F44CC07E
:10128000803209F45DC0EFC0803409F468C048F4CE
:10129000803309F455C0883309F0E5C08093F40128
:1012A000D8C0803509F44FC0883509F45DC0883452
:1012B00009F0D9C0D6C0883909F4C7C0A8F4883766
:1012C00009F467C038F4883609F463C0803709F43C
:1012D00060C0C9C0883809F4B8C0803909F45FC05B
:1012E000803809F0C0C05BC0803B09F486C038F488
:1012F000803A09F466C0883A09F47FC0B4C0803CE3
:1013000009F4A7C0883C09F4A4C0883B09F48AC04A
:10131000AAC08091190210C0909118028091170202
:10132000981770F5E091180281E08E0F80931802F3
:10133000F0E0E950FE4F80818093BB0085EC86C0D1
:101340008093F4018EC0E091180281E08E0F8093AB
:1013500018028091BB00F0E0E950FE4F808390912D
:101360001802809117026EC0E091180281E08E0F82
:10137000809318028091BB00F0E0E950FE4F80831B
:101380008091F60181116DC081E08093F50184EABE
:1013900061C083E08093CD011092F301CFCF8091A3
:1013A000F301803208F051C0E091F30181E08E0F2B
:1013B0008093F3018091BB00F0E0ED52FE4F8083FB
:1013C000BDCF85EC8093BC001092CD018091F301DC
:1013D000803230F4E091F301F0E0ED52FE4F1082E4
:1013E0006091F30170E0E091D101F091D20183EDC1
:1013F00091E009951092F30136C084E08093CD010D
:101400001092D0011092CC01E091CE01F091CF0169
:1014100009958091CC01811105C081E08093CC01B8
:101420001092AC01E091D00181E08E0F8093D00149
:10143000F0E0E455FE4F80818093BB009091D00195
:101440008091CC01981708F479CF85E88093BC008F
:101450000AC085EC8093BC001092CD0104C01092AC
:10146000F4010E94160FFF91EF91BF91AF919F91F0
:101470008F917F916F915F914F913F912F910F903D
:101480000FBE0F901F9018950E940119CF92DF9206
:10149000EF92FF920F931F93CF93DF936C017A012A
:1014A0008B01C0E0D0E0CE15DF0589F0D8016D9149
:1014B0008D01D601ED91FC910190F081E02DC601E6
:1014C0000995892B11F47E0102C02196ECCFC7014A
:1014D000DF91CF911F910F91FF90EF90DF90CF9010
:1014E0000895FC01918D828D981761F0828DDF0146
:1014F000A80FB11D5D968C91928D9F5F9F73928F07
:1015000090E008958FEF9FEF0895FC01918D828DFB
:10151000981731F0828DE80FF11D858D90E00895C8
:101520008FEF9FEF0895FC01918D228D892F90E020
:10153000805C9F4F821B91098F739927089583E2E6
:1015400097E00E94930A21E0892B09F420E0822F82
:101550000895FC01848DDF01A80FB11DA35ABF4F70
:101560002C91848D90E001968F739927848FA689A2
:10157000B7892C93A089B1898C9180648C93938DC9
:10158000848D981306C00288F389E02D80818F7DB9
:1015900080830895EF92FF920F931F93CF93DF9371
:1015A000EC0181E0888F9B8D8C8D981305C0E889B4
:1015B000F989808185FD24C0F62E0B8D10E00F5F28
:1015C0001F4F0F731127E02E8C8DE8120CC00FB641
:1015D00007FCFACFE889F989808185FFF5CFCE0134
:1015E0000E94A90AF1CF8B8DFE01E80FF11DE35A8D
:1015F000FF4FF0820B8FEA89FB898081806207C0F0
:10160000EE89FF896083E889F9898081806480831D
:1016100081E090E0DF91CF911F910F91FF90EF90CB
:101620000895CF93DF93EC01888D8823C9F0EA8970
:10163000FB89808185FD05C0A889B9898C9186FDCB
:101640000FC00FB607FCF5CF808185FFF2CFA889C8
:10165000B9898C9185FFEDCFCE010E94A90AE7CF11
:10166000DF91CF91089580E090E0892B29F00E94CE
:101670009F0A81110C94000008952F923F924F927F
:101680005F926F927F928F929F92AF92BF92CF9212
:10169000DF92EF92FF920F931F93CF93DF93CDB71B
:1016A000DEB729970FB6F894DEBF0FBECDBF89878E
:1016B00049835A836B837C83009121071091220711
:1016C000ADE74A2E512C612C712C0115110509F43E
:1016D0006FC0D801ED91FC910084F185E02DC80127
:1016E00009951C01F801A281B3811296C12CD12C5D
:1016F0007601812C912C540120E030E0A901009763
:10170000A9F0FD0132976081260F311D411D511D49
:1017100031966081860E911CA11CB11C6C91C60E85
:10172000D11CE11CF11C01971396E9CFA0E5B0E0B4
:101730000E9487186D837E838F839887A7E3B0E02C
:10174000A50194010E9487184B015C01ABE4B0E055
:10175000A70196010E948718472F582F692F7727D6
:10176000F5E0F29D9001F39D300D11248D819E8155
:10177000AF81B885C92EDA2EEB2EFF24C20ED31E00
:10178000E11CF11C4C0C5D1C6E1C7F1C892C9A2CDE
:10179000AB2CBB24480C591C6A1C7B1C440E551EE8
:1017A000661E771ED80114960D911C9115978DCF4A
:1017B000B985CB2ED12CE12CF12CA3019201C701CC
:1017C000B6010E94C318872E982EA92EBB248981AA
:1017D0009A81AB81BC8188169906AA06BB0660F087
:1017E000A7019601BC01CD010E94C318A501940177
:1017F0000E949218822F01C0898529960FB6F8940D
:10180000DEBF0FBECDBFDF91CF911F910F91FF9033
:10181000EF90DF90CF90BF90AF909F908F907F9090
:101820006F905F904F903F902F9008951F920F926E
:101830000FB60F9211242F933F934F935F936F93A3
:101840007F938F939F93AF93BF93EF93FF9383E225
:1018500097E00E94A90AFF91EF91BF91AF919F91EC
:101860008F917F916F915F914F913F912F910F9049
:101870000FBE0F901F9018951F920F920FB60F92E8
:1018800011242F938F939F93EF93FF93E09133074E
:10189000F09134078081E0913907F0913A0782FD99
:1018A00012C0908180913C078F5F8F7320913D071C
:1018B000821751F0E0913C07F0E0ED5DF84F958F15
:1018C00080933C0701C08081FF91EF919F918F91A0
:1018D0002F910F900FBE0F901F901895DC01FB0108
:1018E0004C9111965C91119712967C91342F3F7117
:1018F000330F330F832F880F35E5282F239F020ED8
:1019000020E0211D1124642F6074942F907247FDF4
:1019100021C061110BC0911104C0822F8095422F0C
:1019200011C045E5420F30E02BEA33C091110DC0E4
:10193000382F4AEA349F030E30E0311D11248BEA20
:10194000831B420F282F30E024C080E0422F4095B7
:10195000322F0EC0611111C091110CC0382F2AEA2C
:10196000329F030E30E0311D11244BEA431B3B5ADA
:1019700020E00FC0322F30950BC0911104C085E5D7
:10198000820F3BEA03C08AEA820F90E0321B282FC5
:1019900040E05F3F11F15523E9F0222321F0259F1C
:1019A000020E20E0211D442321F0459F040E40E05B
:1019B000411D332321F0359F030E30E0311D1124EA
:1019C0005095559F050E50E0511D1124250F450FD0
:1019D000350F03C03FEF4FEF2FEF7F3F09F420C0DB
:1019E00050E0772321F0779F512D09F05F5F552359
:1019F000A1F0222321F0259F020E20E0211D442387
:101A000021F0459F040E40E0411D332321F0359F16
:101A1000030E30E0311D112403C030E040E020E02F
:101A20002083418332830895CF93DF9380918C0389
:101A3000882399F1C0918A03D0918B0340910601CC
:101A40005091070160910801709109012DE833E080
:101A5000CE010E94CD06811102C080E01FC04091DE
:101A60008D0550918E0560918F05709190054115FF
:101A700051056105710579F02DE833E0CE010E9432
:101A8000CD06882351F310928D0510928E05109289
:101A90008F051092900510928C0381E0DF91CF9119
:101AA0000895BF92CF92DF92EF92FF920F931F9310
:101AB000CF93DF936B017C01B42E8091060190914E
:101AC0000701A0910801B09109018C159D05AE0593
:101AD000BF0509F476C00E94140D882309F478C06C
:101AE000C0918A03D0918B038E81882369F088810D
:101AF0009981AA81BB81C816D906EA06FB0621F4A2
:101B00008F819885892BB1F1C882D982EA82FB82C4
:101B10008B85A7019601833039F089E0220F331FAE
:101B2000441F551F8A95D1F761E1CE010E945406EA
:101B3000882319F083E08D8337C00E9481118B01C7
:101B40000E941C068A878F3F49F40E948111601B06
:101B5000710B6D327140A0F38FE003C08E3F31F006
:101B60008DE08D83CE010E9411061EC018861F8253
:101B700081E08E830DE813E00E941C06F80181933A
:101B80008F01F5E00D381F07B9F78F8198859E5FAB
:101B900098878F832985222319F08115924048F078
:101BA000CE010E943A0605C0CE010E94110680E0D7
:101BB0000FC0C0920601D0920701E0920801F09296
:101BC000090180918C03482F4B2940938C0381E0BD
:101BD000DF91CF911F910F91FF90EF90DF90CF9009
:101BE000BF9008954F925F926F927F928F929F92D3
:101BF000AF92BF92CF92DF92EF92FF920F931F931B
:101C0000CF93DF93EC016A017B0128013901423057
:101C100051056105710510F480E073C089859A85CE
:101C2000AB85BC850196A11DB11D84179507A6073C
:101C3000B70790F38B889C88AD88BE888F898031E8
:101C400029F4BB27AF2D9E2D8D2D09C0DB01CA01C4
:101C500047E0B695A795979587954A95D1F7880E51
:101C6000991EAA1EBB1E8091060190910701A091AA
:101C70000801B091090188169906AA06BB0679F4F5
:101C80008F898031A1F4DD24EE24FF24C601880F62
:101C9000991FFC01E357FC4F5182408219C040E07C
:101CA000C501B4010E94510D8111EACFB5CFE8946E
:101CB000C7F8DD24EE24FF24C601880F991F880F82
:101CC000991FFC01E357FC4F40825182628273826C
:101CD00080918C03816080938C038A89823080F0AC
:101CE0008D819E81AF81B885880E991EAA1EBB1E6C
:101CF00080928D0590928E05A0928F05B0929005EE
:101D000081E0DF91CF911F910F91FF90EF90DF90D5
:101D1000CF90BF90AF909F908F907F906F905F908B
:101D20004F9008958F929F92AF92BF92CF92DF9281
:101D3000EF92FF920F931F93CF93DF93FC01818566
:101D40009285A385B4850196A11DB11D84179507C1
:101D5000A607B70710F480E05CC083899489A58941
:101D6000B689C789C03129F4852E962EA72EBB24AB
:101D700009C04A015B01C7E0B694A7949794879481
:101D8000CA95D1F7E9016A017B018F01BC01CD0140
:101D9000680D791D8A1D9B1D80900601909007019A
:101DA000A0900801B0900901681579058A059B0586
:101DB00099F4F80187898031A9F4B701A601552764
:101DC00066277727440F551FFA01E357FC4F8081A0
:101DD0009181A0E0B0E018C040E00E94510D811157
:101DE000E8CFB9CFB701A6014F77552766277727E8
:101DF000440F551F440F551FFA01E357FC4F8081D4
:101E00009181A281B381BF7088839983AA83BB83A8
:101E100081E0DF91CF911F910F91FF90EF90DF90C4
:101E2000CF90BF90AF909F908F90089585ED809355
:101E3000BC008091BC0084FDFCCF1092CD010895C0
:101E40004091CC01262F30E0240F311D2132310585
:101E5000DCF42091CD012430C9F4FC0180E090E055
:101E6000861758F43091CC012191DC01A455BE4F66
:101E7000A30FB11D2C930196F3CF8091CC01680F75
:101E80006093CC0180E0089581E0089582E0089598
:101E9000EF92FF920F931F93CF93DF93EC019091FA
:101EA00091059F5F292F27702093910590FF02C015
:101EB00090E801C090E021FD9064247009F09062E8
:101EC00020E1290FFE013C967E018FE0E80EF11C17
:101ED00000E011E06191662331F070E0C8010E94DA
:101EE000D3186F5F01C060E0DF0114976C93322F4D
:101EF000369F030E30E0311D1124CF0107973111B9
:101F000003C0EC01188203C03150EC013883662312
:101F100011F061506C93EE15FF05E1F6DF91CF9162
:101F20001F910F91FF90EF900895DC018D919C918E
:101F3000009739F0DC01ED91FC910280F381E02DF6
:101F40000994089587FF02C05A9A01C05A985B9A73
:101F50005B9886FF02C05A9A01C05A985B9A5B98B8
:101F600085FF02C05A9A01C05A985B9A5B9884FF19
:101F700002C05A9A01C05A985B9A5B9883FF02C0CC
:101F80005A9A01C05A985B9A5B9882FF02C05A9A8B
:101F900001C05A985B9A5B9881FF02C05A9A01C0AF
:101FA0005A985B9A5B9880FF02C05A9A01C05A986F
:101FB0005B9A5B980895DC018D919C91009739F0B4
:101FC000DC01ED91FC910280F381E02D09940895EC
:101FD00087FF02C05C9A01C05C985D9A5D9886FF9D
:101FE00002C05C9A01C05C985D9A5D9885FF02C052
:101FF0005C9A01C05C985D9A5D9884FF02C05C9A0F
:1020000001C05C985D9A5D9883FF02C05C9A01C034
:102010005C985D9A5D9882FF02C05C9A01C05C98F2
:102020005D9A5D9881FF02C05C9A01C05C985D9AE0
:102030005D9880FF02C05C9A01C05C985D9A5D98D3
:102040000895DC018D919C91009739F0DC01ED91B0
:10205000FC910280F381E02D099408953FB7F89434
:102060008091D4079091D507A091D607B091D7075A
:1020700026B5A89B05C02F3F19F00196A11DB11DE3
:102080003FBFBA2FA92F982F8827820F911DA11D1E
:10209000B11DBC01CD0142E0660F771F881F991F5B
:1020A0004A95D1F70895CF93DF93382FE2E9F5E011
:1020B000A4E9B5E02081239F020E20E0211D2083AA
:1020C000ED012A91239F020E20E0211D28832C91EF
:1020D000239F020E20E0211D2C931124339613968A
:1020E00087E0E132F80731F7DF91CF9108950F9340
:1020F0001F93CF93DF93CDB7DEB7C058D1090FB68A
:10210000F894DEBF0FBECDBF9E0127573F4F4CE96D
:1021100051E060E870E08E010F5F1F4FC8010E9420
:102120000619F80101900020E9F73197AF01401B33
:10213000510BB80183E297E00E94460A42E050E06A
:1021400066EA71E083E297E00E94460AC058DF4FDA
:102150000FB6F894DEBF0FBECDBFDF91CF911F91B8
:102160000F910895EF92FF920F931F93CF93DF93F8
:10217000EC017B018A01E881F9810480F581E02D81
:102180000995FB82EA821E870D87E881F981028426
:10219000F385E02DCE010995009729F19C0140E0DF
:1021A00050E060E472E48FE090E00E946818722FC3
:1021B000632F0091C3071091C4072091C507309188
:1021C000C607872F962FDA0180179107A207B3075A
:1021D00010F4D901C8018093C3079093C407A0935A
:1021E000C507B093C607CE01DF91CF911F910F9124
:1021F000FF90EF90089590E0FC01E656FF4F349178
:10220000FC01EA57FF4F2491FC01EE58FF4FE49187
:10221000EE2309F43BC0332339F1333091F038F425
:102220003130A9F0323001F584B58F7D12C03730DE
:1022300091F03830A1F03430B9F4809180008F7D76
:1022400003C0809180008F77809380000DC084B59B
:102250008F7784BD09C08091B0008F7703C08091D3
:10226000B0008F7D8093B000F0E0EE0FFF1FE859C3
:10227000FF4FA591B4918FB7F894EC91611103C011
:1022800020952E2301C02E2B2C938FBF08958F9263
:102290009F92AF92BF92CF92DF92EF92FF926B012B
:1022A0007C010E942E104B015C01C114D104E10499
:1022B000F104F1F00E942E10DC01CB01881999097C
:1022C000AA09BB09883E9340A105B10570F321E03E
:1022D000C21AD108E108F10888EE880E83E0981E42
:1022E000A11CB11CC114D104E104F10419F7DDCF24
:1022F000FF90EF90DF90CF90BF90AF909F908F9026
:1023000008952FB7F8946091D0077091D10780910C
:10231000D2079091D3072FBF08953F924F925F92BB
:102320006F927F928F929F92AF92BF92CF92DF92E5
:10233000EF92FF920F931F93CF93DF9300D01F92E2
:10234000CDB7DEB7F090C0078091C3079091C40766
:10235000A091C507B091C607892B8A2B8B2BE9F07A
:102360000E942E100091DE071091DF072091E007F8
:102370003091E107DC01CB01801B910BA20BB30B69
:102380000091C3071091C4072091C5073091C6077B
:1023900080179107A207B307B8F20E942E1060932E
:1023A000DE077093DF078093E0079093E107E091E9
:1023B000CB07F091CC07309759F04091C707509167
:1023C000C8076091C9077091CA078F2D0995F82E2B
:1023D00000912107109122074F2C512C612C712C58
:1023E0000115110509F461C0D8011C96EC901C97E9
:1023F0008091C1079091C2078436910510F41C9614
:102400001C92D801ED91FC91A280B38019821A82AE
:102410001B82F11014C0F8014585568562817381D5
:102420009E012F5F3F4FC801F5010995D8011C9609
:10243000EC921C9714960D911C911597D1CFF80131
:102440003996CE0101966C0148019CE0890E911CE1
:10245000DF0113973C902191332001F12223F1F009
:10246000822F90E0A0E0B0E09C01AD012F5F3F4FD4
:102470004F4F5F4FC301B2010E94C3189B01AC01D3
:10248000832D90E0A0E0B0E0BC01CD016F5F7F4FF5
:102490008F4F9F4F0E94C318D6018C93BFEFCB1A6A
:1024A000DB0AE815F905A1F6B6CF8091DC0790911B
:1024B000DD078C010F5F1F4F1093DD070093DC07D2
:1024C00049979CF10E9481114B015C0188EE93E0D9
:1024D000089FB001099F700D189F700D1124072EE1
:1024E000000C880B990BC090D807D090D907E090CA
:1024F000DA07F090DB07A50194012C193D094E097C
:102500005F090E9492183093C2072093C10710926E
:10251000DD071092DC070E9481116093D807709349
:10252000D9078093DA079093DB070F900F900F90F5
:10253000DF91CF911F910F91FF90EF90DF90CF909F
:10254000BF90AF909F908F907F906F905F904F90D3
:102550003F9008958F929F92AF92BF92CF92DF9259
:10256000EF92FF926B017C010E9481114B015C0193
:1025700061E070E080E090E00E9447110E948D11C0
:102580000E948111DC01CB0188199909AA09BB09B4
:102590008C159D05AE05BF0558F3FF90EF90DF90B9
:1025A000CF90BF90AF909F908F9008951F920F9201
:1025B0000FB60F9211242F933F938F939F93AF9356
:1025C000BF938091D0079091D107A091D207B0918D
:1025D000D3073091CF0723E0230F2D3720F4019646
:1025E000A11DB11D05C026E8230F0296A11DB11D36
:1025F0002093CF078093D0079093D107A093D20761
:10260000B093D3078091D4079091D507A091D607B6
:10261000B091D7070196A11DB11D8093D407909367
:10262000D507A093D607B093D707BF91AF919F91DD
:102630008F913F912F910F900FBE0F901F90189583
:10264000CF93DF93CDB7DEB7A7970FB6F894DEBF71
:102650000FBECDBF789484B5826084BD84B581609F
:1026600084BD85B5826085BD85B5816085BD80915D
:102670006E00816080936E001092810080918100D5
:1026800082608093810080918100816080938100CD
:10269000809180008160809380008091B10084608F
:1026A0008093B1008091B00081608093B0008091F0
:1026B0007A00846080937A0080917A0082608093AF
:1026C0007A0080917A00816080937A0080917A000C
:1026D000806880937A001092C10060ED77E080E01E
:1026E00090E00E944711E0913307F091340782E0B7
:1026F0008083E0912F07F09130071082E09131073D
:10270000F09132078FEC808310923B07E0913707FE
:10271000F091380786E08083E0913507F091360725
:10272000808180618083E0913507F0913607808158
:1027300088608083E0913507F0913607808180685A
:102740008083E0913507F091360780818F7D80830B
:1027500082E38093C0078DE39BE09093CC07809346
:10276000CB0780E197E2A0E0B0E08093C7079093A9
:10277000C807A093C907B093CA0780913703811196
:1027800011C086E293E00E943B0480E391E09093C5
:10279000270380932603109236031092350381E0BD
:1027A0008093370344E150E062E975E086E293E00C
:1027B0000E94B21080915003811111C08FE393E009
:1027C0000E943B0482E491E09093400380933F0396
:1027D00010924F0310924E0381E0809350034EE21B
:1027E00050E06EEC75E08FE393E00E94B2108091B0
:1027F0006903811111C088E593E00E943B0484E5E0
:1028000091E09093590380935803109268031092BB
:10281000670381E08093690345E150E068E576E075
:1028200088E593E00E94B21080918203811111C06B
:1028300081E793E00E943B0486E691E09093720367
:1028400080937103109281031092800381E0809342
:1028500082034EE250E067E976E081E793E00E9470
:10286000B2100CE1E02E02E0F02E612C712C412C14
:10287000512C82E9C82E85E0D82E0CE911E098E9A8
:10288000A92EB12C23E1822E912C24E14216510471
:1028900044F4C30185539A4FF70191838083C401A7
:1028A0000CC0C20182549109459760F4C301865A55
:1028B000984FF70191838083C501841995099F93EF
:1028C0008F9308C0C60186199709F7019183808309
:1028D0005F924F925F924F921F930F930E947710D7
:1028E0000F900F900F900F900F900F90FFEF4F1AD7
:1028F0005F0A23E0621A710832E0E30EF11C45E83A
:102900004416510411F60E9481116F8F78A389A398
:102910009AA30CE112E0412C512C3201C12CD12C94
:10292000812C912C5401C501B40123E130E040E039
:1029300050E00E946818DA01C9010A96A11DB11D74
:10294000F82E87FDF094FF0CC301B20123E130E0C3
:1029500040E050E00E946818BA01A901445C5F4F52
:102960006F4F7F4F842F47FD809590910001998391
:10297000880F8A83FB82F801EC0DFD1D6081718157
:10298000CE0101960E946E0C5BEE850E911CA11C7F
:10299000B11C62E0C60ED11C77E8470E511C611CC9
:1029A000711C86E2C816D10409F0BDCF80E090E02A
:1029B000F801E80FF91F06A0F7A1E02D108211829F
:1029C000128202968E30910599F7809100019091C4
:1029D00001014E9690930101809300010C5C1F4F02
:1029E00093E00032190709F096CF0E946C040E9410
:1029F0008D1162E370E080E090E00E94AA120E94D4
:102A00008111DC01CB012F8D38A149A15AA1821B74
:102A1000930BA40BB50B89399A43A105B10528F393
:102A20000E94BA040E9481112B013C01B5E0CB2E1B
:102A3000B8E0DB2E14E6912E0FEF8BEF0E945310BF
:102A400080910201909103018C9D50018D9DB00CED
:102A50009C9DB00C112447EEA41A49ECB40AE090F6
:102A60000401F0900501AC9CC001AD9C900DBC9C94
:102A7000900D1124875E994C90930301809302017D
:102A8000A0E0B0E0892F9A2FAB2FBB278E0D9F1DA2
:102A900096958795969587958C8F9D8E1FEF0E8FB7
:102AA000BE016F5F7F4FCE014C960E946E0C950168
:102AB000A5E8B0E00E94B418FC01EE0FFF1FE45E31
:102AC000FD4F0190F081E02D39812081230F08F422
:102AD0002FEF20833A812181230F08F42FEF2183E8
:102AE0003B812281230F08F42FEF22835FEFE51A49
:102AF000F50AF0920501E09204010E948D1165E053
:102B000070E080E090E00E94AA120E948111DC0136
:102B1000CB0184199509A609B70989399A43A105FA
:102B2000B10508F48ACF0E94BA040E9481114B01BA
:102B30005C0119831A821B821C8389E98D8383E3DC
:102B40008E831F831887198680E88A871B871C86D7
:102B50001D861E871F8686E6888B8EE4898B1A8BDE
:102B60001B8A1C8A1D8B8FE78E8B1F8A188F198FEB
:102B70001A8E1B8FE12CF12C75E0472E512CC701CA
:102B8000B2010E94D3186B013C01CB01019669E0B0
:102B900070E00E94D318FC01EE0FFF1FE80FF91F31
:102BA00081E090E08C0F9D1FE80FF91F20812F8F8F
:102BB0001181E281C60169E070E00E94D318DC0156
:102BC000AA0FBB1FA80FB91F41E050E04C0F5D1FBB
:102BD000A40FB51FFC91FBA311960C9111971296AF
:102BE000FC914BA1242F30E0202E312CCF2ED12C64
:102BF000C9014F8D841B910997FF03C09195819561
:102C00009109B2010E94D3187DA36CA3C101811B5D
:102C1000910997FF03C0919581959109B2010E9496
:102C2000D3187FA36EA3C6018E1B910997FF03C023
:102C3000919581959109B2010E94D3188CA19DA113
:102C4000689EA001699E500D789E500D11249BA195
:102C50008F8D981718F4420F531F04C0C901841BAD
:102C6000950BAC018EA19FA1689E9001699E300DCD
:102C7000789E300D1124011718F4220D331D04C065
:102C8000C101821B930B9C01669EC001679E900D43
:102C9000769E900D1124FE1718F48C0D9D1D04C016
:102CA000F601E81BF90BCF01E0911C02F0911D0227
:102CB0004083218382830E948D1162E370E080E073
:102CC00090E00E94AA120E946C04FFEFEF1AFF0A24
:102CD00025E8E216F10409F052CF0E946C040E942C
:102CE0008D1162E370E080E090E00E94AA120E94E1
:102CF0008111DC01CB0188199909AA09BB0989391D
:102D00009A43A105B10548F30E94BA040E948111BB
:102D10004B015C0100E010E0412C512C32014A943F
:102D200046E0E42EF12C48E4440E4BE6541E41E00C
:102D3000641E711CC801B7010E94D318E0911C02E7
:102D4000F0911D0203970CF040C1608251824282D3
:102D50000E948D1162E370E080E090E00E94AA1270
:102D60000E946C040F5F1F4F05381105E1F60E94A9
:102D70006C040E948D1162E370E080E090E00E949C
:102D8000AA120E948111DC01CB0188199909AA09B4
:102D9000BB0989399A43A105B10548F30E94BA04D9
:102DA0000E9481116B017C011FEFA12CB12C1983B2
:102DB0001A82AB82CE0101960E94A80468E270E0FC
:102DC00080E090E00E94AA120E948D116FEFA61A77
:102DD000B60AA11471E0B70651F70E948111DC0117
:102DE000CB018C199D09AE09BF0989399A43A10508
:102DF000B10558F00E94BA040E9481114B015C0198
:102E000000E010E0FF24FA94D1C0AA24AA94B12CC7
:102E1000A9821A821B83CE0101960E94A80468E24F
:102E200070E080E090E00E94AA120E948D11F1E013
:102E3000AF1AB10868F70E948111DC01CB018C192F
:102E40009D09AE09BF0989399A43A105B10590F6DC
:102E5000A12CB12C1982AA821B83CE0101960E945B
:102E6000A80468E270E080E090E00E94AA120E944C
:102E70008D114FEFA41AB40AA11451E0B50651F711
:102E80000E948111DC01CB018C199D09AE09BF099B
:102E900089399A43A105B10508F0ACCFAA24AA94B8
:102EA000B12C19821A83AB82CE0101960E94A8042C
:102EB00068E270E080E090E00E94AA120E948D110A
:102EC00071E0A71AB10868F70E948111DC01CB01FB
:102ED0008C199D09AE09BF0989399A43A105B1052D
:102EE00008F088CFA12CB12CA9821A831B82CE01B5
:102EF00001960E94A80468E270E080E090E00E94E1
:102F0000AA120E948D11FFEFAF1ABF0AA11421E08F
:102F1000B20651F70E948111DC01CB018C199D0989
:102F2000AE09BF0989399A43A105B10508F062CFFE
:102F3000AA24AA94B12C1983AA821B82CE010196DD
:102F40000E94A80468E270E080E090E00E94AA126B
:102F50000E948D1141E0A41AB10868F70E94811106
:102F6000DC01CB018C199D09AE09BF0989399A434F
:102F7000A105B10508F419CF3DCF1082118212824C
:102F8000E091A002F091A1021082118212820E94AF
:102F90008D1164E670E080E090E00E94AA120E9429
:102FA0006C040F5F1F4F0234110599F0E0911C0271
:102FB000F0911D0200FDE1CFF082F1821282E091DA
:102FC000A002F091A102F082E0CF10821182128261
:102FD000BFCE0E946C040E948D1164E670E080E018
:102FE00090E00E94AA120E948111DC01CB01881995
:102FF0009909AA09BB0989399A43A105B10548F382
:103000000E94BA040E94330B7ECCE3E2F7E0138205
:10301000128288EE93E0A0E0B0E084839583A683DB
:10302000B78328E731E03183208325EC30E0358712
:10303000248724EC30E03787268720EC30E0318B82
:10304000208B21EC30E0338B228B22EC30E0358B6F
:10305000248B26EC30E0378B268B118E128E138E4C
:10306000148EE0ECF7E02FEF208312821182148699
:1030700013864FEF5FEFBA014783508761877287EE
:10308000E2EEF7E0158216821186138642E050E0E8
:1030900060E070E0448755876687778713A215A69E
:1030A00014A628E831E033A722A717A6EDECF7E035
:1030B00020E520831182EBE2F8E013821282848300
:1030C0009583A683B78380E991E0918380830895F7
:1030D000052E97FB1EF400940E947F1857FD07D021
:1030E0000E94921807FC03D04EF40C947F18509560
:1030F0004095309521953F4F4F4F5F4F08959095E4
:103100008095709561957F4F8F4F9F4F08950E94D6
:10311000B418A59F900DB49F900DA49F800D911D94
:1031200011240895A1E21A2EAA1BBB1BFD010DC09C
:10313000AA1FBB1FEE1FFF1FA217B307E407F50767
:1031400020F0A21BB30BE40BF50B661F771F881F43
:10315000991F1A9469F760957095809590959B01D9
:10316000AC01BD01CF010895A29FB001B39FC00182
:10317000A39F700D811D1124911DB29F700D811DA3
:103180001124911D0895DB018F939F930E9487184E
:10319000BF91AF91A29F800D911DA39F900DB29FF3
:1031A000900D1124089597FB072E16F4009407D074
:1031B00077FD09D00E94E71807FC05D03EF49095F2
:1031C00081959F4F0895709561957F4F0895AA1B33
:1031D000BB1B51E107C0AA1FBB1FA617B70710F002
:1031E000A61BB70B881F991F5A95A9F78095909534
:1031F000BC01CD010895EE0FFF1F0590F491E02D65
:10320000099481E090E0F8940C94E71BAEE0B0E004
:10321000ECE0F9E10C94BE1B8C01CA0146E04C8342
:103220001A83098377FF02C060E070E8FB013197E1
:10323000FE83ED83A901BC01CE0101960E943219E3
:103240004D815E8157FD0AC02F8138854217530793
:103250000CF49A01F801E20FF31F10822E96E4E0BD
:103260000C94DA1BACE0B0E0E8E3F9E10C94B01B9D
:103270007C016B018A01FC0117821682838181FF28
:10328000BDC1CE0101964C01F7019381F60193FD7A
:10329000859193FF81916F01882309F4ABC1853239
:1032A00039F493FD859193FF81916F01853229F463
:1032B000B70190E00E941A1BE7CF512C312C20E07F
:1032C0002032A0F48B3269F030F4803259F083322E
:1032D00069F420612CC08D3239F0803339F42160DB
:1032E00026C02260246023C0286021C027FD27C09B
:1032F00030ED380F3A3078F426FF06C0FAE05F9ED2
:10330000300D1124532E13C08AE0389E300D112445
:10331000332E20620CC08E3221F426FD6BC1206456
:1033200006C08C3611F4206802C0883641F4F601DC
:1033300093FD859193FF81916F018111C1CF982FEA
:103340009F7D9554933028F40C5F1F4FFFE3F98362
:103350000DC0833631F0833771F0833509F05BC0DF
:1033600022C0F801808189830E5F1F4F442443945B
:10337000512C540115C03801F2E06F0E711CF80198
:10338000A080B18026FF03C0652D70E002C06FEF02
:103390007FEFC5012C870E940F1B2C0183012C8518
:1033A0002F77222E17C03801F2E06F0E711CF80142
:1033B000A080B18026FF03C0652D70E002C06FEFD2
:1033C0007FEFC5012C870E94041B2C012C852068EF
:1033D000222E830123FC1BC0832D90E04816590642
:1033E000B0F4B70180E290E00E941A1B3A94F4CF47
:1033F000F50127FC859127FE81915F01B70190E0DF
:103400000E941A1B31103A94F1E04F1A51084114EE
:10341000510471F7E5C0843611F0893639F5F801A9
:1034200027FF07C060817181828193810C5F1F4FEC
:1034300008C060817181072E000C880B990B0E5F0C
:103440001F4F2F76722E97FF09C09095809570952B
:1034500061957F4F8F4F9F4F2068722E2AE030E09A
:10346000A4010E94521BA82EA81844C0853729F435
:103470002F7EB22E2AE030E025C0F22FF97FBF2E3A
:103480008F36C1F018F4883579F0B4C0803719F060
:10349000883721F0AFC02F2F2061B22EB4FE0DC0AF
:1034A0008B2D8460B82E09C024FF0AC09F2F966020
:1034B000B92E06C028E030E005C020E130E002C0AF
:1034C00020E132E0F801B7FE07C06081718182819E
:1034D00093810C5F1F4F06C06081718180E090E096
:1034E0000E5F1F4FA4010E94521BA82EA818FB2D8F
:1034F000FF777F2E76FE0BC0372D3E7FA51450F44C
:1035000074FE0AC072FC08C0372D3E7E05C0BA2C7E
:10351000372D03C0BA2C01C0B52C34FF0DC0FE01FD
:10352000EA0DF11D8081803311F4397E09C032FF2C
:1035300006C0B394B39404C0832F867809F0B39483
:1035400033FD13C030FF06C05A2CB31418F4530CCB
:103550005B18B32CB31468F4B70180E290E03C87A9
:103560000E941A1BB3943C85F5CFB31410F43B189A
:1035700001C0312C34FF12C0B70180E390E03C87DA
:103580000E941A1B3C8532FF17C031FD03C088E73B
:1035900090E002C088E590E0B7010CC0832F8678E8
:1035A00059F031FF02C08BE201C080E237FD8DE2AD
:1035B000B70190E00E941A1BA51438F4B70180E30C
:1035C00090E00E941A1B5A94F7CFAA94F401EA0DD6
:1035D000F11D8081B70190E00E941A1BA110F5CF68
:1035E000332009F451CEB70180E290E00E941A1B0B
:1035F0003A94F6CFF7018681978102C08FEF9FEF53
:103600002C96E2E10C94CC1BFC01059061507040BB
:103610000110D8F7809590958E0F9F1F0895FC019B
:103620006150704001900110D8F7809590958E0FF1
:103630009F1F08950F931F93CF93DF93FB01238167
:1036400021FD03C08FEF9FEF28C022FF16C04681E7
:103650005781248135814217530744F4A081B181F9
:103660009D012F5F3F4F318320838C9326813781CB
:103670002F5F3F4F3783268310C0EB01092F182F90
:103680000084F185E02D0995892BE1F68E819F81DB
:1036900001969F838E83812F902FDF91CF911F9171
:1036A0000F910895FA01AA27283051F1203181F1B4
:1036B000E8946F936E7F6E5F7F4F8F4F9F4FAF4F3A
:1036C000B1E03ED0B4E03CD0670F781F891F9A1F4D
:1036D000A11D680F791F8A1F911DA11D6A0F711D01
:1036E000811D911DA11D20D009F468943F912AE00D
:1036F000269F11243019305D3193DEF6CF010895F5
:10370000462F4770405D4193B3E00FD0C9F7F6CF25
:10371000462F4F70405D4A3318F0495D31FD4052ED
:10372000419302D0A9F7EACFB4E0A6959795879583
:1037300077956795BA95C9F7009761057105089562
:103740009B01AC010A2E069457954795379527950E
:10375000BA95C9F7620F731F841F951FA01D0895A6
:103760002F923F924F925F926F927F928F929F9291
:10377000AF92BF92CF92DF92EF92FF920F931F937F
:10378000CF93DF93CDB7DEB7CA1BDB0B0FB6F89430
:10379000DEBF0FBECDBF09942A88398848885F8470
:1037A0006E847D848C849B84AA84B984C884DF80E1
:1037B000EE80FD800C811B81AA81B981CE0FD11DC5
:1037C0000FB6F894DEBF0FBECDBFED010895F8949B
:0237D000FFCF29
:1037D2005A0039053200FFFFFFFF00000000440AD3
:1037E200440A440AAA01A601A30100000000B4038E
:1037F200F703440AAA01A601A301440A000000003B
:10380200B403F703CE01AA01A601A301D30100006C
:103812000000B403F7037002AA01A601A301750216
:1038220000000000B403F703AF03AA01A601A3013D
:10383200120300000000B403F7039E01AA01A601CF
:10384200A301010100000000CA0A460A930A710A94
:10385200850A110B000000003807460A000000002C
:103862000006EC05E204DF04DC04DB042564202D01
:0A3872002D3E202564000D0A000021
:00000001FF
